:100000000C9452000C947A000C947A000C947A00B0
:100010000C947A000C947A000C947A000C947A0078
:100020000C947A000C947A000C947A000C947A0068
:100030000C947A000C947A000C945D080C940E09D0
:100040000C947A000C947A000C947A000C947A0048
:100050000C947A000C947A000C947A000C947A0038
:100060000C947A000C947A000C947A000C947A0028
:100070000C947A000C947A000C947A000C947A0018
:100080000C947A000C947A000C947A000C947A0008
:100090000C948A070C9414080C94EE070C947A00C4
:1000A0002E0AF90C11241FBECFEFCDBFDFE3DEBF58
:1000B00018E2A0E0B8E2E4E7FEE102C005900D928C
:1000C000AA30B107D9F72AE2AAE0B8E201C01D922E
:1000D000A732B207E1F710E0C1E5D0E004C02197F4
:1000E000FE010E94820DC035D107C9F70E94700A37
:1000F0000C94C30E0C940000FC0154894589252FF3
:1001000030E0842F90E0821B930B541710F0CF96B1
:10011000089501970895FC0192898389981761F0E9
:10012000A389AE0FBF2FB11D59968C9193899F5F04
:100130009F73938B90E008958FEF9FEF0895FC01DC
:1001400092898389981731F08389E80FF11D818D99
:1001500090E008958FEF9FEF0895FC019289238925
:10016000892F90E0805C9F4F821B91098F739927A4
:100170000895CF93DF93EC01E881F9810680F78140
:10018000E02D0995EC85FD8586818F738683EC854E
:10019000FD8585818F7585838B898A8B198ADF918F
:1001A000CF910895CF93DF93FC0194898589C4850D
:1001B000D585981306C08D818F7D8D83DF91CF917A
:1001C0000895A589AE0FBF2FB11DA75ABF4F2C911F
:1001D000858990E001968F739927858B80E48C83C5
:1001E000A485B58512962C93948985899813E6CFBA
:1001F000A485B58515968C9115978F7D15968C9352
:1002000087898823D9F2808D80931301178AD6CFEE
:10021000DC011C96ED91FC910FB607FE03C0258111
:1002200025FD04C0248125FD0C94D2000895EF9291
:10023000FF920F931F93CF93DF93EC0181E0898BA3
:100240009C898D8998131CC0AC85BD8514968C91B2
:10025000149785FF15C012966C93AC85BD8580E41C
:1002600014968C93EC85FD8585818F7D858381E057
:1002700090E0DF91CF911F910F91FF90EF90089543
:100280008091110180FF08C080911301888F8E89B1
:100290008093130181E08F8BF62E0C8910E00F5FA5
:1002A0001F4F0F731127E02E8D898E1104C0CE01D0
:1002B0000E940801F9CFEC89EC0FFD2FF11DE75AE0
:1002C000FF4FF0820C8BEC85FD8585818062CECF5F
:1002D000CF93DF93FC0121892223C9F0EC018091A7
:1002E000110180FF08C080911301808F868980935F
:1002F000130181E0878BEC85FD85858185FD03C039
:10030000848186FD04C0CE010E940801F4CFDF91F4
:10031000CF910895282F30E0F901EC52F24A408144
:100320004F3F09F44EC08B3258F4F901E056F24ABF
:10033000E081EE2329F0E13099F010F0E63010F181
:10034000F901E251F24AE081A0E2EA9FF0011124B2
:10035000FC5F8081842311F1672BF1F446830895BB
:10036000E091010AD901A654B24A5C915C5F81E038
:1003700090E001C0880F5A95EAF780958E2380930C
:10038000010ADECF80E1E89FF0011124E05AF54F29
:1003900081818F7E8183D4CF458308952654324A4C
:1003A000D9018C91309771F08F3F61F07096E80F12
:1003B000F11D9FB7F8948081672B39F4877F808384
:1003C0009FBF0895F0E0E0E0F4CF8860F8CFCF93CE
:1003D000DF9390E0FC01EC52F24A20812F3F71F054
:1003E000FC01E251F24AA08130E2A39FD001112426
:1003F000BC5F6130710529F411962C93DF91CF9188
:1004000008958654924AEC01E881EF3F89F0CD01CE
:100410004096E80FF92FF11D9FB7F89412962C9390
:1004200080816230710539F4886080839FBFE6CF98
:10043000F0E0E0E0F1CF877FF8CF8B3210F40C943E
:10044000E7010895CF92DF92EF92FF920F931F93EF
:10045000CF93DF93EC016A017B01022F8989882306
:1004600039F0E881F9810288F389E02DCE01099500
:1004700098898091E205892B8093E2051FB7F89453
:1004800060E070E281EA97E0A70196010E942E0DDC
:1004900069017A018FEFC81AD80AE80AF80AF694B7
:1004A000E794D794C794EC85FD8586818D7F8683FC
:1004B000EC85FD8586818683198AA09123110A2EF9
:1004C000000CBB0BA70196010E947A0D20E034E0DE
:1004D00040E050E00E94500DEC85FD85C20ED31E19
:1004E000E41EF51EC086D186EC85FD850783EC856C
:1004F000FD858681806C8683EC85FD85858180689D
:1005000085838E8562E070E00E941D028F858B32AC
:1005100020F461E070E00E948A018F8561E070E064
:100520000E941D021FBFDF91CF911F910F91FF907D
:10053000EF90DF90CF900895CF93DF938FB7F8942B
:1005400020914C2930914D2940914E2950914F29AD
:10055000E091BA0A9091B60A90FF06C02F5F3F4F14
:100560004F4F5F4FE091BA0A8FBFA0914A29B091D7
:100570004B29C0914829D09149290E946F0DEC9FC9
:100580009001ED9F300D1124620F731F811D911D8D
:10059000DF91CF91089560933229709333290895A4
:1005A00060933029709331290895AF92BF92CF9212
:1005B000DF92EF92FF920F931F93CF93DF936C0123
:1005C0007B018B01040F151FEB015E01AE18BF0804
:1005D000C017D10759F06991D601ED91FC910190B6
:1005E000F081E02DC6010995892B79F7C501DF91CE
:1005F000CF911F910F91FF90EF90DF90CF90BF9020
:10060000AF90089581E008950F9391E090932F2982
:1006100010922E2960932C2970932D2940932B2919
:1006200020932A29109229291092282900932729FA
:10063000880F8093262923E030E044E050E0809149
:100640002B29882341F02093242930932529809158
:1006500026298E7F0BC080912A29882351F0409350
:100660002429509325298091262981608093A70809
:1006700008C080912B29811104C080912A298823E8
:1006800011F380912E298823E1F380912E29833064
:10069000B1F280912A29882321F0809128290F9195
:1006A000089580912E29823031F0853031F08130EB
:1006B00031F480E0F4CF81E0F2CF83E0F0CF84E04A
:1006C000EECFE0EAF8E091859066918722E030E095
:1006D00020932429309325298093162910921529D7
:1006E000089581E0809315291092162993E0909344
:1006F000AA089091AB0891FF10C010922229E091B6
:100700001329F091142909958093212985E090E01F
:10071000809324299093252908951092232980936A
:10072000202986E090E0F4CF8F929F92AF92BF9203
:10073000CF92DF92EF92FF92CF93DF9360342DE060
:10074000720723E08207910508F454C0611525E380
:1007500072072CE08207910508F445C060387F4499
:100760008241910508F046C0C8E7D0E020E432E4B9
:100770004FE050E08090002890900128A09002283F
:10078000B0900328C501B4010E942E0D69017A01C1
:100790008AE0C81AD108E108F108C501B40120E4D3
:1007A00032E44FE050E00E942E0DDE010E946F0DFA
:1007B00028EE33E040E050E00E942E0DC21AD30A2A
:1007C000E40AF50AF694E794D794C794C092A60871
:1007D000DF91CF91FF90EF90DF90CF90BF90AF90DF
:1007E0009F908F900895CCE2D1E020E83AE146E076
:1007F00050E0C0CFC8EED3E020EA36E841E050E058
:10080000B9CFE0913029F0913129309741F0109221
:10081000122910921129099580911129089580E0DB
:100820000895E0913229F0913329309759F03091B1
:10083000102920910F29321728F010921029809347
:100840000F29099408950895E091102980910F29A6
:10085000E81730F4F0E0E157F74D808190E008951B
:100860008FEF9FEF08959091102980910F292FEF1E
:100870003FEF981748F4E92FF0E0E157F74D20815A
:1008800030E09F5F90931029C901089580910F294E
:1008900090911029891B990B0895CF92DF92EF92C6
:1008A000FF920F931F93CF93DF937C018A01EB019B
:1008B0006B01C40ED51ECC15DD0551F06991D70131
:1008C000ED91FC910190F081E02DC7010995F3CFE6
:1008D000C801DF91CF911F910F91FF90EF90DF90B2
:1008E000CF9008952091112927FF08C021E030E022
:1008F000FC012283338390E080E0089580911229E7
:10090000E82FF0E0E15FF74D60838F5F809312295D
:100910008093112981E090E00895DC01ED91FC9134
:10092000008CF18DE02D61E009940F9380912429D2
:10093000909125290197A1F480912F29811112C04E
:10094000062F20E0409111296FE078E280910E2877
:100950000E94040310921229109211290F910895F8
:1009600080E0F8CF81E0F6CF60930E281092122934
:10097000109211290895DC01ED91FC91048CF58D04
:10098000E02D21E009940F938FE898E280931729D6
:100990009093182980912429909125290197C9F4D1
:1009A00080912F29811117C0FA014138510510F0AB
:1009B000E0E8F0E0022F862F2E2F40E070E060E0AC
:1009C0000E9404031092102980930F2990E00F9148
:1009D000089580E0F7CF81E0F5CFCB01BA010C9408
:1009E0009403E0EAF8E01382168281E0858314869E
:1009F0001186109224291092252908951092102909
:100A000010920F29109212291092112980912429F5
:100A100090912529892BD9F482E090E080932429B4
:100A2000909325291092232910922229109215299A
:100A30001092162910920D2810922029660F6093AB
:100A4000AC0881EE8093A90881E08093A30881E03F
:100A500094E080931329909314298FE098E2809377
:100A6000192990931A2981E194E080931E2990938B
:100A70001F298FE898E280931B2990931C2980E816
:100A800080931D2908951092102910920F29109219
:100A90001229109211298091242990912529892BBE
:100AA00041F562E070E086E10E94E70162E070E0FB
:100AB00087E10E94E7018091E3058093E30581E0EF
:100AC00090E0809324299093252910922829109250
:100AD000292910922F2910922E2981EC8093A308A6
:100AE00060EA76E881E090E00E94940381E08093E0
:100AF000A508089590E080E008958F929F92AF92AC
:100B0000BF92CF92DF92EF92FF92CF93DF93FC01DF
:100B10008281938168177907D8F54A01AA24BB24FA
:100B2000C32ED42EE52EFF24DC2DC22F8085982DD8
:100B3000882391F0C82FD0E0C89DD001C99DB00D89
:100B4000D89DB00D11249B2F8C9D60011124DD2DAB
:100B5000829F90011124C32FA6852185328583852C
:100B6000A81321C0AB01440F551F640F751F620FFE
:100B7000731FA385A60FB72FB11D9C93A485A60F45
:100B8000B72FB11DDC938585680F711DFB01C083F4
:100B9000DF91CF91FF90EF90DF90CF90BF90AF901B
:100BA0009F908F900895660F771F660F771F620FD3
:100BB000731FA60FB72FB11D1C92DBCFCF92DF9210
:100BC000EF92FF920F931F93CF93DF93CDB7DEB7D2
:100BD0002997CDBFDEBF8C01DC0119968D919C91C8
:100BE000892B09F473C00E949C02F801C784D08845
:100BF000E188F2886C157D058E059F0520F46787D6
:100C0000708B818B928BF801C784D088E188F28841
:100C10006C197D098E099F096C327140810591051F
:100C200010F3F894D80114968D919C9115978983AF
:100C30009A831996ED91FC917F01BFEFEB1AFB0AA5
:100C400080818987F80190810388F489E02DD8019B
:100C500055968C91992309F445C09081982B9887DB
:100C60009081809589238F838F818C8388E08B830B
:100C700058856F8149853B812C8189819A81D70173
:100C8000508347FD252F3A952083262F39F0441FA6
:100C900000C000006083000000C0F2CF38E04D913A
:100CA00060830000019761F7D8015396ED93FC93A0
:100CB000549749873B832C8389839A8378940E9435
:100CC0009C02F8016787708B818B928B2996CDBF30
:100CD000DEBFDF91CF911F910F91FF90EF90DF90DA
:100CE000CF9008959081982B988790818095892343
:100CF0008F838F818E8388E08D8358856F814985AE
:100D00003D812E8189819A81D701508347FD252F0E
:100D100000C000C0208300C000C000C000C000C0F0
:100D200060830000262F3A9541F0441F000000C068
:100D300000C000C000C000C0E8CF38E04D9100C046
:100D4000608300C0019709F7D8015396ED93FC9397
:100D5000549749873D832E83AFCFCF93DF93EC0128
:100D60008E819F8197FD0BC061E070E00E941D02A3
:100D70008E818B3220F470E060E00E948A0181E075
:100D80008983DF91CF910895DC01ED91FC9100887A
:100D9000F189E02D23E030E009946EE280E599E2EC
:100DA0000C941701FC0101900020E9F73197AF0185
:100DB000481B590BBC0180E599E20C94D5028F9237
:100DC0009F92AF92BF920F931F93CF93DF93CDB7B4
:100DD000DEB7A197CDBFDEBF19A2423008F44AE0CA
:100DE0008E010F5D1F4F842E912CB12CA12CA501DB
:100DF00094010E942E0DE62FB901CA01EA30DCF4FD
:100E0000E05DD801EE938D01232B242B252B79F760
:100E100090E080E0109719F0CD010E94D206A196D3
:100E2000CDBFDEBFDF91CF911F910F91BF90AF90EB
:100E30009F908F900895E95CE4CFCF93DF930E9459
:100E4000D206EC018AE49EE50E94D2068C0F9D1F1B
:100E5000DF91CF910895CF93DF9310920C28C0E0DB
:100E6000D1E090910F2980911029981701F18BEE14
:100E700099E20E9433042C2F30E0F901EC5CF64D2E
:100E80008095808380910C288F5F80930C282F5F42
:100E90003F4FC22FC170D093362980910A2890917C
:100EA0000B28019680930A2890930B28DACF8DE4C3
:100EB0009EE50E94D2066091342970E090E080E0C7
:100EC0004AE00E94DF0682E59EE50E94D20660911C
:100ED000352970E090E080E04AE00E94DF0682E57C
:100EE0009EE50E94D2066091362970E090E080E095
:100EF0004AE00E94DF068AE49EE5DF91CF910C94E0
:100F0000D206FC014481558170E060E081859285C4
:100F10000C94BC0E1F920F920FB60F9211242F93B8
:100F20003F934F935F936F937F938F939F93AF9371
:100F3000BF93409144295091452960914629709171
:100F4000472980914229909143292091402930914D
:100F50004129420F531F611D711D20913E2930917F
:100F60003F29820F931F883E23E0920730F0885E6E
:100F700093404F5F5F4F6F4F7F4F80934229909315
:100F800043294093442950934529609346297093FF
:100F9000472980914C2990914D29A0914E29B091DB
:100FA0004F290196A11DB11D80934C2990934D2985
:100FB000A0934E29B0934F2981E08093B60ABF9148
:100FC000AF919F918F917F916F915F914F913F91E1
:100FD0002F910F900FBE0F901F9018951F920F9298
:100FE0000FB60F9211242F933F934F935F936F93FC
:100FF0007F938F939F93AF93BF93EF93FF9380E57E
:1010000099E20E94D200FF91EF91BF91AF919F9121
:101010008F917F916F915F914F913F912F910F90A1
:101020000FBE0F901F9018951F920F920FB60F9240
:1010300011242F933F934F935F936F937F938F93DD
:101040009F93AF93BF93EF93FF93E0915C29F0914F
:101050005D29818181FD2FC06081809162298F5F30
:101060008F7390916329891741F0E0916229F0E034
:10107000E05BF64D618F809362298091E929909120
:10108000EA29009739F0DC01ED91FC910190F081A3
:10109000E02D0995FF91EF91BF91AF919F918F91B5
:1010A0007F916F915F914F913F912F910F900FBE64
:1010B0000F901F9018958081EDCF1F920F920FB661
:1010C0000F9211242F933F934F935F936F937F93CE
:1010D0008F939F93AF93BF93CF93EF93FF93C09161
:1010E000AB08C2FF0AC01092232910922229109245
:1010F000212984E00E94610314C0C6FF2FC08091A3
:101100002029813051F480912329E0911E29F0910A
:101110001F2990E0099510922029C0FF14C00E9459
:101120007103FF91EF91CF91BF91AF919F918F91FB
:101130007F916F915F914F913F912F910F900FBED3
:101140000F901F90189580E48093AB0881E00E9477
:1011500061038091AB0885FFE4CFE1CFC7FF5CC09E
:10116000C3FF08C01092232910922229109221292E
:1011700083E0C0CF8091A90880668093A908809100
:10118000AB0881FF2CC080912229882349F08091EF
:10119000AB0884FF05C082E08093AA0881E0AACF53
:1011A00090912229809121299817A8F4E091222971
:1011B0008091192990911A29E80FF92FF11D80814A
:1011C0008093AD08809122298F5F8093222983E04C
:1011D0008093AA08A6CF82E08093AA088BCF909133
:1011E000232980911D29981790F48091AD08E091F2
:1011F000232920911B2930911C29E20FF32FF11D87
:101200008083809123298F5F80932329E0CF86E01C
:101210008093AA0882E06ECF85E06CCF1F920F9278
:101220000FB60F9211242F933F938F939F93EF93B9
:10123000FF938091A508982F9C70E1F08091A508FC
:1012400094E082FF93E090932E298093A50881E09B
:1012500090E0809324299093252910922F29FF91C3
:10126000EF919F918F913F912F910F900FBE0F9013
:101270001F90189586FF4EC020912B2990912A2906
:101280008091A50884FF15C080912729882379F0D3
:1012900083E08093A40885E080932E2910922F2963
:1012A00081E090E08093242990932529D8CF81E094
:1012B000F0CF80912929821790F4E091292980911B
:1012C0002C2990912D29E80FF92FF11D8081809311
:1012D000A808809129298F5F80932929C0CF809108
:1012E0002829891760F484E090E080932429909362
:1012F00025298091262981608093A708B0CF80910D
:101300002729882329F083E08093A40881E0C4CFB3
:1013100081E0FACF87FF40C09091282980912A2947
:101320009817D8F48091A808E091282920911729CE
:1013300030911829E20FF32FF11D80838091282925
:101340008F5F8093282990912A29809128298917D5
:10135000D8F482E08093A40882CF80912729882343
:1013600089F087E08093A40882E080932E29109270
:101370002F2981E090E080932429909325291092D1
:101380002A296DCF85E0EECF80912729882311F09F
:1013900087E0BACF85E0B8CF86E07ECFCF92DF92EC
:1013A000EF92FF920F931F93CF93DF93EC016B01AA
:1013B0008A01198218861F86188A198A1A8A81E07A
:1013C0008E878B871C8692E09D8788837B01EE0C3D
:1013D000FF1CE60EF71EEC82FD82C7010E94970DEE
:1013E00089879A87009791F1A70170E060E00E94D9
:1013F000BC0ECA82DB820E831F838981882351F051
:1014000061E070E0802F0E941D0270E060E0802F9C
:101410000E948A01F801E251F24A80818630D8F4B4
:1014200020E2829FC00111249C5F04968B8B9C8BD1
:10143000F801EC52F24A80818D8BDF91CF911F91A0
:101440000F91FF90EF90DF90CF9008951C821D8246
:101450001A821B82D0CF90E080E0E7CFE0E5F9E28E
:101460001282138288EE93E0A0E0B0E0848395833B
:10147000A683B7832CE03EE52083318320E638E065
:101480002487358728E1268729E1278720E4208BD8
:10149000128A138A148A158A26E2268B178A108EDE
:1014A0001092E9291092EA29EBEEF9E212821382F6
:1014B00084839583A683B78386E29EE580839183A8
:1014C00046E050E064E070E08DE09AE20E94CE09D0
:1014D00045E050E061E070E087EF99E20C94CE09BE
:1014E00088ED90E084BF9093610080E094E2A4EFE7
:1014F000B0E08093002890930128A0930228B09335
:10150000032880910206866080930206809100067F
:10151000816080930006809102068F7C8093020692
:101520008091A0008F788093A00080910206806156
:10153000809302061092E20581E08093E40583E047
:101540008093010A8FEF90E08093260A9093270AF8
:1015500080E890E08093380A9093390A80933A0AA1
:1015600090933B0A80933C0A90933D0A8BE08093D2
:10157000000A8091E50581608093E5058091E5058D
:1015800082608093E505E0E8FAE037E02FEF90E82D
:1015900085E031832487958780837096E03C4AE01C
:1015A000F407B9F780E094E080934A2990934B299F
:1015B00080914A2990914B292FEF30E0B9010E9488
:1015C0001A0D609348297093492980914A29909176
:1015D0004B29E8EEF3E0BF010E941A0D6093402909
:1015E0007093412980914A2990914B29BF010E9413
:1015F0001A0D80933E2990933F292093BC0A309383
:10160000BD0A8091B50A81608093B50A84E0809319
:10161000B00A8091B00A81608093B00A789440E06B
:1016200052EC61E070E080E599E20E94C40666E356
:101630008BEE99E20E94FE048DEC96E080933029B7
:10164000909331298BE297E080933229909333294C
:1016500084E59EE50E941D078DE09AE20E94AD069A
:101660008DE09AE20E9481078DE09AE20E94DE05F9
:1016700087EF99E20E94AD066091FF296D3329F151
:101680002091002A3091012A6150C9F070E08FEF5B
:101690009CE30E941A0DF9014091FB295091FC290D
:1016A000CF01821B930B8417950760F44081469FFE
:1016B000C001479F900D112490833196EDCF70E0CB
:1016C00060E0E9CF8DE38093FF2987EF99E20E94E4
:1016D000810787EF99E20E94DE0510923C29109263
:1016E000392980E0A82E80E0B82EC8EED3E093E040
:1016F000792E24E0622E9924939432E0832E04EF15
:1017000011E080913629882321F110923629F0903A
:10171000342981E08F15E8F0F81609F456C081E607
:101720009EE50E941D0710923D2910923C291092BF
:1017300039298DE09AE20E94810787EF99E20E94A1
:1017400081078DE09AE20E94DE0587EF99E20E9410
:10175000DE0580913D29882391F0809139298130DF
:1017600009F454C0823009F478C080913C29823059
:1017700009F4F1C008F097C0813009F4C5C00E9497
:101780009C026B017C0128EEC20E23E0D21EE11CFC
:10179000F11C48EEC41643E0D406E104F10438F429
:1017A0000E949C02C616D706E806F906C8F30E94F6
:1017B0009C026C157D058E059F05C8F3A114B1042C
:1017C00009F49FCF0E9400009CCF8AE69EE50E940C
:1017D0001D07F0923C29F0923929C0933A29D09301
:1017E0003B29109237291092382920E03FEF40E042
:1017F00050E070E060E08DE09AE20E947D058DE0AF
:101800009AE20E94DE05F0923D29A3CF809137290C
:1018100090913829009729F0019780933729909368
:1018200038298091372990913829892B09F09DCF4B
:101830002FEF30E040E050E070E060E087EF99E2A9
:101840000E947D0587EF99E20E94DE05009337290B
:10185000109338298092392988CF80913729909127
:101860003829009729F001978093372990933829D8
:101870008091372990913829892B09F076CF20E083
:1018800030E0A90170E060E087EF99E20E947D05F9
:1018900087EF99E20E94DE050093372910933829DB
:1018A0009092392962CF833009F47CC0843009F0EA
:1018B00066CF80913A2990913B29009729F00197B2
:1018C00080933A2990933B2980913A2990913B2922
:1018D000892B09F054CF8DE09AE20E94810720E025
:1018E0003FEF40E050E070E060E08DE09AE20E945F
:1018F0007D058DE09AE20E94DE05C0933A29D093DF
:101900003B2990923C293BCF80913A2990913B29E9
:10191000009729F0019780933A2990933B29809171
:101920003A2990913B29892B09F029CF20E03FEFFC
:1019300047E350E061E070E08DE09AE20E947D05AF
:101940008DE09AE20E94DE05C0933A29D0933B29AC
:1019500080923C2914CF80913A2990913B2900979D
:1019600029F0019780933A2990933B2980913A2955
:1019700090913B29892B09F002CF20E03FEF4BE902
:1019800050E062E070E08DE09AE20E947D058DE01B
:101990009AE20E94DE05C0933A29D0933B297092C7
:1019A0003C29EDCE80913A2990913B29009729F06E
:1019B000019780933A2990933B2980913A299091FD
:1019C0003B29892B09F0DBCE20E030E04FEF50E0DF
:1019D00063E070E08DE09AE20E947D058DE09AE27E
:1019E0000E94DE05C0933A29D0933B2960923C299E
:1019F000C6CE8091002A9091012A0E94330E8091D8
:101A0000FD299091FE2997FD04C070E060E00E94DE
:101A10001D028091162A9091172A0E94330E809100
:101A2000132A9091142A97FD04C070E060E00C9492
:101A30001D020895AA1BBB1B51E107C0AA1FBB1FB3
:101A4000A617B70710F0A61BB70B881F991F5A954A
:101A5000A9F780959095BC01CD010895A1E21A2EB9
:101A6000AA1BBB1BFD010DC0AA1FBB1FEE1FFF1F42
:101A7000A217B307E407F50720F0A21BB30BE40B92
:101A8000F50B661F771F881F991F1A9469F76095D9
:101A90007095809590959B01AC01BD01CF01089593
:101AA000052E97FB1EF400940E94670D57FD07D08A
:101AB0000E942E0D07FC03D04EF40C94670D509538
:101AC0004095309521953F4F4F4F5F4F089590952A
:101AD0008095709561957F4F8F4F9F4F08950E941D
:101AE000880DA59F900DB49F900DA49F800D911D12
:101AF00011240895B7FF0C946F0D0E946F0D821B87
:101B0000930B0895EE0FFF1F0590F491E02D0994BB
:101B1000A29FB001B39FC001A39F700D811D11242E
:101B2000911DB29F700D811D1124911D08950F9379
:101B30001F93CF93DF938230910510F482E090E001
:101B4000E091252AF091262A30E020E0B0E0A0E0E4
:101B5000309799F42115310509F44AC0281B390B37
:101B600024303105D8F58A819B816115710589F191
:101B7000FB0182839383FE0111C040815181028168
:101B8000138148175907E0F04817590799F410973F
:101B900061F012960C93129713961C933296CF0114
:101BA000DF91CF911F910F9108950093252A1093F3
:101BB000262AF4CF2115310551F04217530738F08A
:101BC000A901DB019A01BD01DF01F801C1CFEF01DD
:101BD000F9CF8093252A9093262ACDCFFE01E20FDC
:101BE000F31F819391932250310928833983D7CFF2
:101BF0002091232A3091242A232B41F42091062876
:101C0000309107282093232A3093242A20910428F6
:101C1000309105282115310541F42DB73EB740918B
:101C2000082850910928241B350BE091232AF091B4
:101C3000242AE217F307A0F42E1B3F0B28173907BD
:101C400078F0AC014E5F5F4F2417350748F04E0F18
:101C50005F1F4093232A5093242A819391939FCF0F
:101C6000F0E0E0E09CCFCF93DF930097E9F0FC0138
:101C7000329712821382A091252AB091262AED0173
:101C800030E020E01097A1F420813181820F931F72
:101C90002091232A3091242A2817390709F061C09E
:101CA000E093232AF093242ADF91CF910895EA014B
:101CB000CE17DF07E8F54A815B819E01411551058A
:101CC000B1F7E901EA83FB8349915991C40FD51F0C
:101CD000EC17FD0761F4808191810296840F951FB6
:101CE000E90188839983828193818A839B83F0E0D1
:101CF000E0E012968D919C9113970097B9F52D9184
:101D00003C911197CD010296820F931F2091232AB7
:101D10003091242A2817390739F6309751F5109257
:101D2000252A1092262AA093232AB093242ABCCFD6
:101D3000C283D38340815181840F951FC817D9076F
:101D400061F44E5F5F4F88819981480F591F40832E
:101D500051838A819B81828393832115310509F008
:101D6000B0CFE093252AF093262A9ECFFD01DC0117
:101D7000C0CF12821382D7CFDC0101C06D934150D6
:101D80005040E0F7089510E0C1E5D0E004C0FE0146
:101D90000E94820D2196C235D107C9F7F894FFCF72
:101DA000000000030001020000010100000000002B
:101DB000000000000000000000000504000506020D
:101DC00004010300010001020302010002030405F3
:101DD0000203050420100120400410020801020142
:101DE0000204080402010408102004082010020262
:101DF00000050201050004010104040403030303B8
:101E00000505030300000101000000001701D502D1
:101E10007C006801AD008B009F00C4062202B9005F
:101E200002030000000072044D047A0523044604F6
:101E3000330424044305FE04F104ED04B4049504C2
:101E40008D04C304BB04CB02D0020D0A00526563AB
:101E50003A0020006932635F73657475702E2E2E10
:101E600000434D445F53544F5000434D445F53541F
:041E70004152540087
:0A1E74000024F4000000272A80007B
:00000001FF
