:100000000C9452000C947A000C947A000C947A00B0
:100010000C947A000C947A000C947A000C947A0078
:100020000C947A000C947A000C947A000C947A0068
:100030000C947A000C947A000C9481080C94320988
:100040000C947A000C947A000C947A000C947A0048
:100050000C947A000C947A000C947A000C947A0038
:100060000C947A000C947A000C947A000C947A0028
:100070000C947A000C947A000C947A000C947A0018
:100080000C947A000C947A000C947A000C947A0008
:100090000C94AE070C9438080C9412080C947A0057
:1000A000F209FF0B11241FBECFEFCDBFDFE3DEBF90
:1000B00018E2A0E0B8E2ECE6FCE102C005900D9287
:1000C000AA30B107D9F72AE2AAE0B8E201C01D922E
:1000D000AC30B207E1F710E0C1E5D0E004C02197F1
:1000E000FE010E94780CC035D107C9F70E94940A1E
:1000F0000C94B90D0C940000FC0154894589252FFE
:1001000030E0842F90E0821B930B541710F0CF96B1
:10011000089501970895FC0192898389981761F0E9
:10012000A389AE0FBF2FB11D59968C9193899F5F04
:100130009F73938B90E008958FEF9FEF0895FC01DC
:1001400092898389981731F08389E80FF11D818D99
:1001500090E008958FEF9FEF0895FC019289238925
:10016000892F90E0805C9F4F821B91098F739927A4
:100170000895CF93DF93EC01E881F9810680F78140
:10018000E02D0995EC85FD8586818F738683EC854E
:10019000FD8585818F7585838B898A8B198ADF918F
:1001A000CF910895CF93DF93FC0194898589C4850D
:1001B000D585981306C08D818F7D8D83DF91CF917A
:1001C0000895A589AE0FBF2FB11DA75ABF4F2C911F
:1001D000858990E001968F739927858B80E48C83C5
:1001E000A485B58512962C93948985899813E6CFBA
:1001F000A485B58515968C9115978F7D15968C9352
:1002000087898823D9F2808D80931301178AD6CFEE
:10021000DC011C96ED91FC910FB607FE03C0258111
:1002200025FD04C0248125FD0C94D2000895EF9291
:10023000FF920F931F93CF93DF93EC0181E0898BA3
:100240009C898D8998131CC0AC85BD8514968C91B2
:10025000149785FF15C012966C93AC85BD8580E41C
:1002600014968C93EC85FD8585818F7D858381E057
:1002700090E0DF91CF911F910F91FF90EF90089543
:100280008091110180FF08C080911301888F8E89B1
:100290008093130181E08F8BF62E0C8910E00F5FA5
:1002A0001F4F0F731127E02E8D898E1104C0CE01D0
:1002B0000E940801F9CFEC89EC0FFD2FF11DE75AE0
:1002C000FF4FF0820C8BEC85FD8585818062CECF5F
:1002D000CF93DF93FC0121892223C9F0EC018091A7
:1002E000110180FF08C080911301808F868980935F
:1002F000130181E0878BEC85FD85858185FD03C039
:10030000848186FD04C0CE010E940801F4CFDF91F4
:10031000CF910895282F30E0F901EE5FF34A408134
:100320004F3F09F44EC08B3258F4F901E457F44AB8
:10033000E081EE2329F0E13099F010F0E63010F181
:10034000F901E45EF34AE081A0E2EA9FF0011124A2
:10035000FC5F8081842311F1672BF1F446830895BB
:10036000E091010AD901AA55B44A5C915C5F81E031
:1003700090E001C0880F5A95EAF780958E2380930C
:10038000010ADECF80E1E89FF0011124E05AF54F29
:1003900081818F7E8183D4CF458308952A55344A45
:1003A000D9018C91309771F08F3F61F07096E80F12
:1003B000F11D9FB7F8948081672B39F4877F808384
:1003C0009FBF0895F0E0E0E0F4CF8860F8CFCF93CE
:1003D000DF9390E0FC01EE5FF34A20812F3F71F044
:1003E000FC01E45EF34AA08130E2A39FD001112416
:1003F000BC5F6130710529F411962C93DF91CF9188
:1004000008958A55944AEC01E881EF3F89F0CD01C7
:100410004096E80FF92FF11D9FB7F89412962C9390
:1004200080816230710539F4886080839FBFE6CF98
:10043000F0E0E0E0F1CF877FF8CF8B3210F40C943E
:10044000E7010895CF92DF92EF92FF920F931F93EF
:10045000CF93DF93EC016A017B01022F8989882306
:1004600039F0E881F9810288F389E02DCE01099500
:1004700098898091E205892B8093E2051FB7F89453
:1004800060E070E281EA97E0A70196010E94240CE7
:1004900069017A018FEFC81AD80AE80AF80AF694B7
:1004A000E794D794C794EC85FD8586818D7F8683FC
:1004B000EC85FD8586818683198AA09123110A2EF9
:1004C000000CBB0BA70196010E94700C20E034E0E9
:1004D00040E050E00E94460CEC85FD85C20ED31E24
:1004E000E41EF51EC086D186EC85FD850783EC856C
:1004F000FD858681806C8683EC85FD85858180689D
:1005000085838E8562E070E00E941D028F858B32AC
:1005100020F461E070E00E948A018F8561E070E064
:100520000E941D021FBFDF91CF911F910F91FF907D
:10053000EF90DF90CF900895CF93DF938FB7F8942B
:1005400020914729309148294091492950914A29C1
:10055000E091BA0A9091B60A90FF06C02F5F3F4F14
:100560004F4F5F4FE091BA0A8FBFA0914529B091DC
:100570004629C0914329D09144290E94650CEC9FE3
:100580009001ED9F300D1124620F731F811D911D8D
:10059000DF91CF9108950F931F93CF93DF93CDB742
:1005A000DEB72997CDBFDEBF8091FB299091FC2952
:1005B000892B09F47CC00E949C020091012A1091B1
:1005C000022A2091032A3091042A601771078207BA
:1005D000930740F46093012A7093022A8093032AC0
:1005E0009093042A0091012A1091022A2091032A53
:1005F0003091042A601B710B820B930B6C3271409B
:1006000081059105C0F2F8948091F6299091F7291F
:1006100089839A83E091FB29F091FC29DF011196EF
:10062000808189879091F229E091052AF091062A2C
:100630008091072A992309F442C09081982B9887CA
:100640009081809589238F838F818C8388E08B8331
:1006500058856F8149853B812C8189819A8150839E
:1006600047FD252F3A952083262F39F0441F00C0DF
:1006700000006083000000C0F2CF38E04D9160833D
:100680000000019761F7E093052AF093062A498755
:100690003B832C8389839A8378940E949C02609385
:1006A000012A7093022A8093032A9093042A2996A0
:1006B000CDBFDEBFDF91CF911F910F910895908143
:1006C000982B98879081809589238F838F818E8343
:1006D00088E08D8358856F8149853D812E81898190
:1006E0009A81508347FD252F00C000C0208300C0A1
:1006F00000C000C000C000C060830000262F3A95F3
:1007000041F0441F000000C000C000C000C000C095
:10071000E8CF38E04D9100C0608300C0019709F731
:10072000E093052AF093062A49873D832E83B2CFB2
:100730008F929F92AF92BF92CF92DF92EF92FF92F1
:100740004B015C010E949C026B017C01A8EEB3E0AE
:10075000A50194010E94650CC60ED71EE81EF91E65
:10076000C616D706E806F90618F40E949C02F8CFD0
:100770000E949C026C157D058E059F05C8F3FF90B5
:10078000EF90DF90CF90BF90AF909F908F900895A3
:100790009F92AF92BF92CF92DF92EF92FF920F9310
:1007A0001F93CF93DF936B017C01870122273327AF
:1007B000A02EBD2CD0E0C0E0962E8091F42990911F
:1007C000F529C817D90708F04EC0392D8091FA29AC
:1007D0002B2D6A2D882371F0809F9001819F300D11
:1007E0001124632F8B9D90011124232F8C9DC00118
:1007F0001124392FE091002A8091FB299091FC2946
:100800004091FD29E41323C0AE01440F551F4C0F46
:100810005D1F840F951FE091FD29E80FF92FF11D51
:100820006083E091FE29E80FF92FF11D20832091CC
:10083000FF29820F911DFC0130830E94CB0262E3ED
:1008400070E080E090E00E9498032196B6CFAE0160
:10085000440F551F440F551F840F951FE80FF92FA4
:10086000F11D1082D8CFDF91CF911F910F91FF9092
:10087000EF90DF90CF90BF90AF909F9008956093DE
:100880003229709333290895609330297093312968
:100890000895AF92BF92CF92DF92EF92FF920F93A3
:1008A0001F93CF93DF936C017B018B01040F151F06
:1008B000EB015E01AE18BF08C017D10759F069916E
:1008C000D601ED91FC910190F081E02DC6010995D2
:1008D000892B79F7C501DF91CF911F910F91FF907F
:1008E000EF90DF90CF90BF90AF90089581E0089592
:1008F0000F9391E090932F2910922E2960932C2929
:1009000070932D2940932B2920932A29109229296D
:100910001092282900932729880F8093262923E005
:1009200030E044E050E080912B29882341F020936F
:10093000242930932529809126298E7F0BC0809110
:100940002A29882351F04093242950932529809106
:10095000262981608093A70808C080912B298111E6
:1009600004C080912A29882311F380912E2988239D
:10097000E1F380912E298330B1F280912A298823D6
:1009800021F0809128290F91089580912E2982309D
:1009900031F0853031F0813031F480E0F4CF81E006
:1009A000F2CF83E0F0CF84E0EECFE0EAF8E091858B
:1009B0009066918722E030E0209324293093252906
:1009C0008093162910921529089581E080931529A6
:1009D0001092162993E09093AA089091AB0891FF8A
:1009E00010C010922229E0911329F0911429099541
:1009F0008093212985E090E08093242990932529F4
:100A00000895109223298093202986E090E0F4CF66
:100A10008F929F92AF92BF92CF92DF92EF92FF920E
:100A2000CF93DF9360342DE0720723E082079105B6
:100A300008F454C0611525E372072CE08207910584
:100A400008F445C060387F448241910508F046C0F3
:100A5000C8E7D0E020E432E44FE050E08090002886
:100A600090900128A0900228B0900328C501B401FD
:100A70000E94240C69017A018AE0C81AD108E108B1
:100A8000F108C501B40120E432E44FE050E00E94D7
:100A9000240CDE010E94650C28EE33E040E050E0BB
:100AA0000E94240CC21AD30AE40AF50AF694E794C9
:100AB000D794C794C092A608DF91CF91FF90EF9092
:100AC000DF90CF90BF90AF909F908F900895CCE231
:100AD000D1E020E83AE146E050E0C0CFC8EED3E0F4
:100AE00020EA36E841E050E0B9CFE0913029F091BA
:100AF0003129309741F0109212291092112909954D
:100B000080911129089580E00895E0913229F091B3
:100B10003329309759F03091102920910F2932173D
:100B200028F01092102980930F29099408950895B0
:100B3000E091102980910F29E81730F4F0E0E15797
:100B4000F74D808190E008958FEF9FEF0895909189
:100B5000102980910F292FEF3FEF981748F4E92FC4
:100B6000F0E0E157F74D208130E09F5F909310292E
:100B7000C901089580910F2990911029891B990B23
:100B80000895CF92DF92EF92FF920F931F93CF932E
:100B9000DF937C018A01EB016B01C40ED51ECC15DD
:100BA000DD0551F06991D701ED91FC910190F08143
:100BB000E02DC7010995F3CFC801DF91CF911F91B7
:100BC0000F91FF90EF90DF90CF9008952091112921
:100BD00027FF08C021E030E0FC012283338390E04E
:100BE00080E0089580911229E82FF0E0E15FF74D51
:100BF00060838F5F809312298093112981E090E0B8
:100C00000895DC01ED91FC91008CF18DE02D61E007
:100C100009940F9380912429909125290197A1F49B
:100C200080912F29811112C0062F20E040911129B7
:100C30006FE078E280910E280E94780410921229C9
:100C4000109211290F91089580E0F8CF81E0F6CF3E
:100C500060930E2810921229109211290895DC0138
:100C6000ED91FC91048CF58DE02D21E009940F931A
:100C70008FE898E28093172990931829809124296E
:100C8000909125290197C9F480912F29811117C0CE
:100C9000FA014138510510F0E0E8F0E0022F862F0C
:100CA0002E2F40E070E060E00E947804109210293E
:100CB00080930F2990E00F91089580E0F7CF81E0B5
:100CC000F5CFCB01BA010C940805E0EAF8E01382F5
:100CD000168281E085831486118610922429109251
:100CE000252908951092102910920F291092122987
:100CF000109211298091242990912529892BD9F4CA
:100D000082E090E080932429909325291092232952
:100D100010922229109215291092162910920D284E
:100D200010922029660F6093AC0881EE8093A90889
:100D300081E08093A30885E795E080931329909341
:100D400014298FE098E28093192990931A2985E855
:100D500095E080931E2990931F298FE898E2809355
:100D60001B2990931C2980E880931D2908951092D7
:100D7000102910920F291092122910921129809196
:100D8000242990912529892B41F562E070E086E1C4
:100D90000E94E70162E070E087E10E94E701809134
:100DA000E3058093E30581E090E08093242990930C
:100DB0002529109228291092292910922F29109262
:100DC0002E2981EC8093A30860EA76E881E090E028
:100DD0000E94080581E08093A508089590E080E0D6
:100DE0000895DC01ED91FC910088F189E02D23E06C
:100DF00030E009946EE28BE499E20C941701FC0157
:100E000001900020E9F73197AF01481B590BBC0155
:100E10008BE499E20C9449048F929F92AF92BF9217
:100E20000F931F93CF93DF93CDB7DEB7A197CDBFBD
:100E3000DEBF19A2423008F44AE08E010F5D1F4F59
:100E4000842E912CB12CA12CA50194010E94240C7C
:100E5000E62FB901CA01EA30DCF4E05DD801EE9377
:100E60008D01232B242B252B79F790E080E0109720
:100E700019F0CD010E94FF06A196CDBFDEBFDF9124
:100E8000CF911F910F91BF90AF909F908F90089539
:100E9000E95CE4CFCF93DF930E94FF06EC0186E389
:100EA0009CE50E94FF068C0F9D1FDF91CF91089556
:100EB000CF93DF9310920C28C0E0D1E090910F29DE
:100EC00080911029981701F186EE99E20E94A705FA
:100ED0002C2F30E0F901EC5CF64D809580838091F9
:100EE0000C288F5F80930C282F5F3F4FC22FC1705B
:100EF000D093362980910A2890910B2801968093EF
:100F00000A2890930B28DACF89E39CE50E94FF061C
:100F10006091342970E090E080E04AE00E940C0784
:100F20008EE39CE50E94FF066091352970E090E019
:100F300080E04AE00E940C078EE39CE50E94FF06D9
:100F40006091362970E090E080E04AE00E940C0752
:100F500086E39CE5DF91CF910C94FF061F920F92E0
:100F60000FB60F9211242F933F934F935F936F937C
:100F70007F938F939F93AF93BF9340913F2950915D
:100F80004029609141297091422980913D29909199
:100F90003E2920913B2930913C29420F531F611D6E
:100FA000711D2091392930913A29820F931F883E73
:100FB00023E0920730F0885E93404F5F5F4F6F4FA2
:100FC0007F4F80933D2990933E2940933F29509332
:100FD000402960934129709342298091472990913B
:100FE0004829A0914929B0914A290196A11DB11D16
:100FF0008093472990934829A0934929B0934A297F
:1010000081E08093B60ABF91AF919F918F917F91BC
:101010006F915F914F913F912F910F900FBE0F9065
:101020001F9018951F920F920FB60F9211242F93B5
:101030003F934F935F936F937F938F939F93AF9360
:10104000BF93EF93FF938BE499E20E94D200FF914C
:10105000EF91BF91AF919F918F917F916F915F9130
:101060004F913F912F910F900FBE0F901F901895A9
:101070001F920F920FB60F9211242F933F934F930D
:101080005F936F937F938F939F93AF93BF93EF93F0
:10109000FF93E0915729F0915829818181FD2FC05C
:1010A000608180915D298F5F8F7390915E29891790
:1010B00041F0E0915D29F0E0E55BF64D618F8093B2
:1010C0005D298091E4299091E529009739F0DC01B0
:1010D000ED91FC910190F081E02D0995FF91EF9148
:1010E000BF91AF919F918F917F916F915F914F9140
:1010F0003F912F910F900FBE0F901F9018958081F8
:10110000EDCF1F920F920FB60F9211242F933F93A2
:101110004F935F936F937F938F939F93AF93BF93FF
:10112000CF93EF93FF93C091AB08C2FF0AC0109218
:101130002329109222291092212984E00E94D504AB
:1011400014C0C6FF2FC080912029813051F48091B6
:101150002329E0911E29F0911F2990E00995109212
:101160002029C0FF14C00E94E504FF91EF91CF91A8
:10117000BF91AF919F918F917F916F915F914F91AF
:101180003F912F910F900FBE0F901F90189580E404
:101190008093AB0881E00E94D5048091AB0885FF65
:1011A000E4CFE1CFC7FF5CC0C3FF08C01092232982
:1011B000109222291092212983E0C0CF8091A908A2
:1011C00080668093A9088091AB0881FF2CC0809134
:1011D0002229882349F08091AB0884FF05C082E072
:1011E0008093AA0881E0AACF909122298091212999
:1011F0009817A8F4E09122298091192990911A2931
:10120000E80FF92FF11D80818093AD08809122298C
:101210008F5F8093222983E08093AA08A6CF82E083
:101220008093AA088BCF9091232980911D2998172C
:1012300090F48091AD08E091232920911B293091F1
:101240001C29E20FF32FF11D8083809123298F5FEA
:1012500080932329E0CF86E08093AA0882E06ECFB6
:1012600085E06CCF1F920F920FB60F9211242F932F
:101270003F938F939F93EF93FF938091A508982FAF
:101280009C70E1F08091A50894E082FF93E0909338
:101290002E298093A50881E090E0809324299093E3
:1012A000252910922F29FF91EF919F918F913F91C6
:1012B0002F910F900FBE0F901F90189586FF4EC074
:1012C00020912B2990912A298091A50884FF15C08F
:1012D00080912729882379F083E08093A40885E012
:1012E00080932E2910922F2981E090E08093242969
:1012F00090932529D8CF81E0F0CF809129298217BA
:1013000090F4E091292980912C2990912D29E80FC2
:10131000F92FF11D80818093A808809129298F5F82
:1013200080932929C0CF80912829891760F484E00F
:1013300090E080932429909325298091262981602B
:101340008093A708B0CF80912729882329F083E0D4
:101350008093A40881E0C4CF81E0FACF87FF40C02A
:101360009091282980912A299817D8F48091A8086B
:10137000E09128292091172930911829E20FF32FA5
:10138000F11D8083809128298F5F80932829909177
:101390002A29809128298917D8F482E08093A4080B
:1013A00082CF80912729882389F087E08093A40841
:1013B00082E080932E2910922F2981E090E0809383
:1013C00024299093252910922A296DCF85E0EECF0C
:1013D00080912729882311F087E0BACF85E0B8CF24
:1013E00086E07ECF10924D2910924E2988EE93E030
:1013F000A0E0B0E080934F2990935029A093512909
:10140000B093522924EC3BE520934B2930934C298F
:1014100020E638E0209357293093582928E120937B
:10142000592929E120935A2920E420935B2910921D
:101430005D2910925E2910925F291092602926E2A0
:101440002093612910926229109263291092E42955
:101450001092E5291092E8291092E9298093EA294F
:101460009093EB29A093EC29B093ED298EED9BE5A9
:101470008093E6299093E7291092F3291092FA2994
:101480001092012A1092022A1092032A1092042A22
:1014900081E08093002A8093FD291092FE2992E03A
:1014A0009093FF298093F2298FE090E08093F629B2
:1014B0009093F7290E948D0C8093FB299093FC292F
:1014C000009749F12FE0FC0111922A95E9F785E098
:1014D00090E08093F4299093F52986E090E0809342
:1014E000F8299093F9298091F329882351F061E03C
:1014F00070E086E00E941D0270E060E086E00E94DD
:101500008A0184EA94E08093052A9093062A80E178
:101510008093072A08951092F6291092F7291092C5
:10152000F4291092F529D9CF88ED90E084BF9093EB
:10153000610080E094E2A4EFB0E0809300289093F3
:101540000128A0930228B0930328809102068660A8
:10155000809302068091000681608093000680914E
:1015600002068F7C809302068091A0008F78809382
:10157000A000809102068061809302061092E2052D
:1015800081E08093E40583E08093010A8FEF90E08F
:101590008093260A9093270A80E890E08093380A87
:1015A0009093390A80933A0A90933B0A80933C0ABD
:1015B00090933D0A8BE08093000A8091E50581605D
:1015C0008093E5058091E50582608093E505E0E87C
:1015D000FAE037E02FEF90E885E0318324879587A4
:1015E00080837096E03C4AE0F407B9F780E094E02D
:1015F00080934529909346298091452990914629C9
:101600002FEF30E0B9010E94100C609343297093D2
:1016100044298091452990914629E8EEF3E0BF01E5
:101620000E94100C60933B2970933C2980914529BE
:1016300090914629BF010E94100C80933929909304
:101640003A292093BC0A3093BD0A8091B50A816083
:101650008093B50A84E08093B00A8091B00A8160DB
:101660008093B00A789440E052EC61E070E08BE443
:1016700099E20E94F10667E386EE99E20E94720603
:101680008AEF96E0809330299093312988E597E09E
:10169000809332299093332980E49CE50E944A0785
:1016A0008091F8299091F92997FD0CC061E070E0D4
:1016B0000E941D028091F8298B3220F470E060E0D6
:1016C0000E948A0181E08093F3294091F62950918C
:1016D000F72970E060E08091FB299091FC290E943D
:1016E000B20D0E94CB026091FA29653629F1209152
:1016F000FB293091FC296150C9F070E08FEF94E62E
:101700000E94100CF9014091F6295091F729CF0160
:10171000821B930B8417950760F44081469FC0019C
:10172000479F900D112490833196EDCF70E060E0DB
:10173000E9CF85E68093FA298DE49CE50E944A076B
:1017400000E010E0D2E0FF24F39480913629882352
:10175000E1F010923629C0913429C230B0F4C13082
:1017600011F189E59CE50E944A07109238294091C1
:10177000F6295091F72970E060E08091FB29909163
:10178000FC290E94B20D0E94CB0280913829882347
:10179000C9F080913729813011F160F0823041F138
:1017A000109237290FC082E69CE50E944A07C09339
:1017B0003829EBCF60E070E08FEF90E00E94C80323
:1017C000F092372961E070E080E090E00E94980399
:1017D0000115110509F4B9CF0E940000B6CF60E0F1
:1017E0007FEF80E090E00E94C803D0933729EACFD2
:1017F0006FEF70E080E090E00E94C803D1CF80914D
:10180000FB299091FC290E94290D8091F829909143
:10181000F92997FD04C070E060E00C941D02089562
:10182000AA1BBB1B51E107C0AA1FBB1FA617B70706
:1018300010F0A61BB70B881F991F5A95A9F7809522
:101840009095BC01CD010895A1E21A2EAA1BBB1BE5
:10185000FD010DC0AA1FBB1FEE1FFF1FA217B3077C
:10186000E407F50720F0A21BB30BE40BF50B661F92
:10187000771F881F991F1A9469F760957095809556
:1018800090959B01AC01BD01CF010895052E97FBFA
:101890001EF400940E945D0C57FD07D00E94240C9A
:1018A00007FC03D04EF40C945D0C50954095309598
:1018B00021953F4F4F4F5F4F0895909580957095BC
:1018C00061957F4F8F4F9F4F08950E947E0CA59F7B
:1018D000900DB49F900DA49F800D911D112408952B
:1018E000B7FF0C94650C0E94650C821B930B089546
:1018F000EE0FFF1F0590F491E02D0994A29FB00117
:10190000B39FC001A39F700D811D1124911DB29F33
:10191000700D811D1124911D08950F931F93CF9376
:10192000DF938230910510F482E090E0E0910A2A82
:10193000F0910B2A30E020E0B0E0A0E0309799F47D
:101940002115310509F44AC0281B390B2430310513
:10195000D8F58A819B816115710589F1FB0182832C
:101960009383FE0111C04081518102811381481788
:101970005907E0F04817590799F4109761F012964B
:101980000C93129713961C933296CF01DF91CF914F
:101990001F910F91089500930A2A10930B2AF4CFF8
:1019A0002115310551F04217530738F0A901DB0129
:1019B0009A01BD01DF01F801C1CFEF01F9CF80939A
:1019C0000A2A90930B2ACDCFFE01E20FF31F8193D9
:1019D00091932250310928833983D7CF2091082A47
:1019E0003091092A232B41F42091062830910728B1
:1019F0002093082A3093092A209104283091052841
:101A00002115310541F42DB73EB74091082850917A
:101A10000928241B350BE091082AF091092AE217C6
:101A2000F307A0F42E1B3F0B2817390778F0AC0101
:101A30004E5F5F4F2417350748F04E0F5F1F4093EE
:101A4000082A5093092A819391939FCFF0E0E0E018
:101A50009CCFCF93DF930097E9F0FC01329712827D
:101A60001382A0910A2AB0910B2AED0130E020E008
:101A70001097A1F420813181820F931F2091082AB1
:101A80003091092A2817390709F061C0E093082A24
:101A9000F093092ADF91CF910895EA01CE17DF076D
:101AA000E8F54A815B819E0141155105B1F7E901D5
:101AB000EA83FB8349915991C40FD51FEC17FD07A9
:101AC00061F4808191810296840F951FE9018883DA
:101AD0009983828193818A839B83F0E0E0E0129670
:101AE0008D919C9113970097B9F52D913C91119789
:101AF000CD010296820F931F2091082A3091092A66
:101B00002817390739F6309751F510920A2A1092A2
:101B10000B2AA093082AB093092ABCCFC283D3838F
:101B200040815181840F951FC817D90761F44E5F1A
:101B30005F4F88819981480F591F408351838A8163
:101B40009B81828393832115310509F0B0CFE09307
:101B50000A2AF0930B2A9ECFFD01DC01C0CF12822E
:101B60001382D7CFDC0101C06D9341505040E0F7A4
:101B7000089510E0C1E5D0E004C0FE010E94780C99
:0C1B80002196C235D107C9F7F894FFCFB9
:101B8C000000000300010200000101000000000041
:101B9C000000000000000000000005040005060223
:101BAC000401030001000102030201000203040509
:101BBC000203050400000000170149047C006801C1
:101BCC00AD008B009F00F1062202B90076040000E4
:101BDC000000E605C105EE069705BA05A7059805B0
:101BEC00B706720665066106280609060106370661
:101BFC002F063F0444042010012040041002080169
:101C0C000201020408040201040810200408201038
:101C1C00020200050201050004010104040403038F
:101C2C00030305050303000001010D0A005265635F
:101C3C003A0020006932635F73657475702E2E2E26
:101C4C0000536574757020646F656E2E00434D44AF
:101C5C005F53544F5000434D445F53544152540012
:0A1C6C000024F40000000C2A8000A0
:00000001FF
