:100000000C9451000C9479000C9479000C947900B4
:100010000C9479000C9479000C9479000C9479007C
:100020000C9479000C9479000C9479000C9479006C
:100030000C9479000C9479000C941F070C94D00751
:100040000C9479000C9479000C9479000C9479004C
:100050000C9479000C9479000C9479000C9479003C
:100060000C9479000C9479000C9479000C9479002C
:100070000C9479000C9479000C9479000C9479001C
:100080000C9479000C9479000C9479000C9479000C
:100090000C944C060C94D6060C94B0060C94790083
:1000A000900811241FBECFEFCDBFDFE3DEBF18E203
:1000B000A0E0B8E2E8EEF5E102C005900D92A430B0
:1000C000B107D9F729E2A4E0B8E201C01D92AE3E23
:1000D000B207E1F710E0C1E5D0E004C02197FE01CE
:1000E0000E94730AC035D107C9F70E94C3080C9457
:1000F000880A0C940000FC0154894589252F30E0C2
:10010000842F90E0821B930B541710F0CF96089524
:1001100001970895FC0192898389981761F0A3895A
:10012000AE0FBF2FB11D59968C9193899F5F9F731E
:10013000938B90E008958FEF9FEF0895FC019289D3
:100140008389981731F08389E80FF11D818D90E044
:1001500008958FEF9FEF0895FC0192892389892FDD
:1001600090E0805C9F4F821B91098F7399270895BF
:10017000CF93DF93EC01E881F9810680F781E02DD0
:100180000995EC85FD8586818F738683EC85FD85D9
:1001900085818F7585838B898A8B198ADF91CF91B1
:1001A0000895CF93DF93FC0194898589C485D58513
:1001B000981306C08D818F7D8D83DF91CF91089537
:1001C000A589AE0FBF2FB11DA75ABF4F2C918589AE
:1001D00090E001968F739927858B80E48C83A485AA
:1001E000B58512962C93948985899813E6CFA485BA
:1001F000B58515968C9115978F7D15968C9387896B
:100200008823D9F2808D80931301178AD6CFDC0121
:100210001C96ED91FC910FB607FE03C0258125FDCC
:1002200004C0248125FD0C94D1000895EF92FF9223
:100230000F931F93CF93DF93EC0181E0898B9C890F
:100240008D8998131CC0AC85BD8514968C9114972C
:1002500085FF15C012966C93AC85BD8580E414961D
:100260008C93EC85FD8585818F7D858381E090E091
:10027000DF91CF911F910F91FF90EF9008958091A2
:10028000110180FF08C080911301888F8E898093AF
:10029000130181E08F8BF62E0C8910E00F5F1F4F4A
:1002A0000F731127E02E8D898E1104C0CE010E949C
:1002B0000701F9CFEC89EC0FFD2FF11DE75AFF4F35
:1002C000F0820C8BEC85FD8585818062CECFCF934B
:1002D000DF93FC0121892223C9F0EC0180911101F7
:1002E00080FF08C080911301808F8689809313015D
:1002F00081E0878BEC85FD85858185FD03C0848148
:1003000086FD04C0CE010E940701F4CFDF91CF919A
:100310000895282F30E0F901EE59FA4A40814F3F05
:1003200009F44EC08B3258F4F901EC5EFA4AE081D0
:10033000EE2329F0E13099F010F0E63010F1F901E8
:10034000E85BFA4AE081A0E2EA9FF0011124FC5F39
:100350008081842311F1672BF1F446830895E091A5
:10036000010AD901A25DBA4A5C915C5F81E090E02C
:1003700001C0880F5A95EAF780958E238093010A71
:10038000DECF80E1E89FF0011124E05AF54F818132
:100390008F7E8183D4CF45830895225D3A4AD90167
:1003A0008C91309771F08F3F61F07096E80FF11DDE
:1003B0009FB7F8948081672B39F4877F80839FBF34
:1003C0000895F0E0E0E0F4CF8860F8CFCF93DF93BA
:1003D00090E0FC01EE59FA4A20812F3F69F0FC01C0
:1003E000E85BFA4AE08130E2E39FF0011124FC5F10
:1003F0006130710521F42183DF91CF910895825DF1
:100400009A4AEC01A881AF3F69F0CF014096A80F4E
:10041000B92FB11D9FB7F89422838C9188608C937B
:100420009FBFEACFB0E0A0E0F5CFCF92DF92EF928E
:10043000FF920F931F93CF93DF93EC016A017B012F
:10044000022F8989882339F0E881F9810288F389AC
:10045000E02DCE01099598898091E205892B809342
:10046000E2051FB7F89460E070E281EA97E0A70127
:1004700096010E941F0A69017A018FEFC81AD80AF3
:10048000E80AF80AF694E794D794C794EC85FD85BA
:1004900086818D7F8683EC85FD8586818683198A9A
:1004A000A09123110A2E000CBB0BA70196010E94FC
:1004B0006B0A20E034E040E050E00E94410AEC8505
:1004C000FD85C20ED31EE41EF51EC086D186EC85C6
:1004D000FD850783EC85FD858681806C8683EC85B0
:1004E000FD858581806885838E858B3220F462E06E
:1004F00070E00E94E6018F858B3220F461E070E0AD
:100500000E9489018F858B3220F461E070E00E94A7
:10051000E6011FBFDF91CF911F910F91FF90EF90E8
:10052000DF90CF900895CF93DF938FB7F894209109
:100530004329309144294091452950914629E09121
:10054000BA0A9091B60A90FF06C02F5F3F4F4F4FF7
:100550005F4FE091BA0A8FBFA0914129B091422923
:10056000C0913F29D09140290E94600AEC9F9001E0
:10057000ED9F300D1124620F731F811D911DDF91BE
:10058000CF91089560932C2970932D29089560933D
:100590002A2970932B290895AF92BF92CF92DF92B0
:1005A000EF92FF920F931F93CF93DF936C017B0128
:1005B0008B01040F151FEB015E01AE18BF08C017B9
:1005C000D10759F06991D601ED91FC910190F0812C
:1005D000E02DC6010995892B79F7C501DF91CF91EF
:1005E0001F910F91FF90EF90DF90CF90BF90AF9051
:1005F000089581E008950F9391E090932929109236
:100600002829609326297093272940932529209330
:100610002429109223291092222900932129880F3E
:100620008093202923E030E044E050E080912529A8
:10063000882341F020931E2930931F29809120297F
:100640008E7F0BC080912429882351F040931E296E
:1006500050931F298091202981608093A70808C0AA
:1006600080912529811104C080912429882311F3C8
:10067000809128298823E1F3809128298330B1F2E1
:1006800080912429882321F0809122290F910895B7
:1006900080912829823031F0853031F0813031F479
:1006A00080E0F4CF81E0F2CF83E0F0CF84E0EECFC2
:1006B000E0EAF8E091859066918722E030E02093AF
:1006C0001E2930931F298093102910920F29089515
:1006D00081E080930F291092102993E09093AA084B
:1006E0009091AB0891FF10C010921C29E0910D2948
:1006F000F0910E29099580931B2985E090E0809365
:100700001E2990931F29089510921D2980931A295C
:1007100086E090E0F4CF8F929F92AF92BF92CF92FB
:10072000DF92EF92FF92CF93DF9360342DE0720758
:1007300023E08207910508F454C0611525E3720790
:100740002CE08207910508F445C060387F4482415F
:10075000910508F046C0C8E7D0E020E432E44FE05D
:1007600050E08090002890900128A0900228B0903E
:100770000328C501B4010E941F0A69017A018AE0B9
:10078000C81AD108E108F108C501B40120E432E437
:100790004FE050E00E941F0ADE010E94600A28EE2E
:1007A00033E040E050E00E941F0AC21AD30AE40A74
:1007B000F50AF694E794D794C794C092A608DF91FF
:1007C000CF91FF90EF90DF90CF90BF90AF909F9030
:1007D0008F900895CCE2D1E020E83AE146E050E085
:1007E000C0CFC8EED3E020EA36E841E050E0B9CF10
:1007F000E0912A29F0912B29309741F010920C2991
:1008000010920B29099580910B29089580E0089595
:10081000E0912C29F0912D29309759F030910A2937
:1008200020910929321728F010920A29809309296A
:10083000099408950895E0910A2980910929E817FB
:1008400030F4F0E0E757F74D808190E008958FEFA6
:100850009FEF089590910A29809109292FEF3FEF8A
:10086000981748F4E92FF0E0E757F74D208130E082
:100870009F5F90930A29C901089580910929909159
:100880000A29891B990B0895CF92DF92EF92FF926C
:100890000F931F93CF93DF937C018A01EB016B01D0
:1008A000C40ED51ECC15DD0551F06991D701ED912F
:1008B000FC910190F081E02DC7010995F3CFC801AB
:1008C000DF91CF911F910F91FF90EF90DF90CF902C
:1008D000089520910B2927FF08C021E030E0FC019A
:1008E0002283338390E080E0089580910C29E82FE3
:1008F000F0E0E75FF74D60838F5F80930C29809372
:100900000B2981E090E00895DC01ED91FC91008CD1
:10091000F18DE02D61E009940F9380911E29909153
:100920001F290197A1F480912929811112C0062F56
:1009300020E040910B2969E078E2809108280E942C
:10094000FB0210920C2910920B290F91089580E060
:10095000F8CF81E0F6CF6093082810920C2910920E
:100960000B290895DC01ED91FC91048CF58DE02DAF
:1009700021E009940F9389E898E2809311299093DC
:10098000122980911E2990911F290197C9F4809105
:100990002929811117C0FA014138510510F0E0E80A
:1009A000F0E0022F862F2E2F40E070E060E00E94E2
:1009B000FB0210920A298093092990E00F91089573
:1009C00080E0F7CF81E0F5CFCB01BA010C948B0327
:1009D000E0EAF8E01382168281E0858314861186AE
:1009E00010921E2910921F29089510920A29109220
:1009F000092910920C2910920B2980911E2990919F
:100A00001F29892BD9F482E090E080931E299093CE
:100A10001F2910921D2910921C2910920F29109243
:100A200010291092072810921A29660F6093AC08BB
:100A300081EE8093A90881E08093A30888EF93E07A
:100A400080930D2990930E2989E098E280931329D1
:100A50009093142988E094E08093182990931929A1
:100A600089E898E2809315299093162980E880936D
:100A70001729089510920A291092092910920C2919
:100A800010920B2980911E2990911F29892B41F5E5
:100A900062E070E086E10E94E60162E070E087E1DA
:100AA0000E94E6018091E3058093E30581E090E0F8
:100AB00080931E2990931F29109222291092232996
:100AC000109229291092282981EC8093A30860EACA
:100AD00076E881E090E00E948B0381E08093A50896
:100AE000089590E080E0089580913129813029F0C7
:100AF000823059F061E070E002C070E060E08CE0AC
:100B00000E94890161E070E007C061E070E08CE064
:100B10000E94890170E060E088E00C948901DC01AA
:100B2000ED91FC910088F189E02D23E030E00994FB
:100B30006EE287E499E20C941601FC01019000201A
:100B4000E9F73197AF01481B590BBC0187E499E2E3
:100B50000C94CC028F929F92AF92BF920F931F93EF
:100B6000CF93DF93CDB7DEB7A197CDBFDEBF19A27C
:100B7000423008F44AE08E010F5D1F4F842E912C05
:100B8000B12CA12CA50194010E941F0AE62FB901E6
:100B9000CA01EA30DCF4E05DD801EE938D01232B2D
:100BA000242B252B79F790E080E0109719F0CD01E8
:100BB0000E949D05A196CDBFDEBFDF91CF911F9111
:100BC0000F91BF90AF909F908F900895E95CE4CF14
:100BD000CF93DF930E949D05EC018EEB95E50E947B
:100BE0009D058C0F9D1FDF91CF910895CF93DF93CB
:100BF00010920628C0E0D1E09091092980910A293D
:100C0000981701F182EE99E20E942A042C2F30E01D
:100C1000F901E25DF64D80958083809106288F5F13
:100C2000809306282F5F3F4FC22FC170D093302989
:100C30008091042890910528019680930428909330
:100C40000528DACF81EC95E50E949D0560912E295B
:100C500070E090E080E04AE00E94AA0586EC95E50D
:100C60000E949D0560912F2970E090E080E04AE0AD
:100C70000E94AA0586EC95E50E949D0560913029A9
:100C800070E090E080E04AE00E94AA058EEB95E5D6
:100C9000DF91CF910C949D051F920F920FB60F928A
:100CA00011242F933F934F935F936F937F938F9371
:100CB0009F93AF93BF9340913B2950913C29609102
:100CC0003D2970913E298091392990913A292091AE
:100CD000372930913829420F531F611D711D209112
:100CE000352930913629820F931F883E23E09207E1
:100CF00030F0885E93404F5F5F4F6F4F7F4F809320
:100D0000392990933A2940933B2950933C29609389
:100D10003D2970933E298091432990914429A091C7
:100D20004529B09146290196A11DB11D8093432903
:100D300090934429A0934529B093462981E080935C
:100D4000B60ABF91AF919F918F917F916F915F9103
:100D50004F913F912F910F900FBE0F901F901895BC
:100D60001F920F920FB60F9211242F933F934F9320
:100D70005F936F937F938F939F93AF93BF93EF9303
:100D8000FF9387E499E20E94D100FF91EF91BF9118
:100D9000AF919F918F917F916F915F914F913F9113
:100DA0002F910F900FBE0F901F9018951F920F92CA
:100DB0000FB60F9211242F933F934F935F936F932E
:100DC0007F938F939F93AF93BF93EF93FF93E091A4
:100DD0005329F0915429818181FD2FC06081809138
:100DE00059298F5F8F7390915A29891741F0E091AB
:100DF0005929F0E0E95BF64D618F80935929809184
:100E0000E0299091E129009739F0DC01ED91FC9106
:100E10000190F081E02D0995FF91EF91BF91AF9185
:100E20009F918F917F916F915F914F913F912F9102
:100E30000F900FBE0F901F9018958081EDCF1F92DD
:100E40000F920FB60F9211242F933F934F935F93FE
:100E50006F937F938F939F93AF93BF93CF93EF93B2
:100E6000FF93C091AB08C2FF0AC010921D291092D7
:100E70001C2910921B2984E00E94580314C0C6FF4D
:100E80002FC080911A29813051F480911D29E09161
:100E90001829F091192990E0099510921A29C0FF9C
:100EA00014C00E946803FF91EF91CF91BF91AF9161
:100EB0009F918F917F916F915F914F913F912F9172
:100EC0000F900FBE0F901F90189580E48093AB0891
:100ED00081E00E9458038091AB0885FFE4CFE1CF09
:100EE000C7FF5CC0C3FF08C010921D2910921C29C7
:100EF00010921B2983E0C0CF8091A908806680935F
:100F0000A9088091AB0881FF2CC080911C298823FF
:100F100049F08091AB0884FF05C082E08093AA0865
:100F200081E0AACF90911C2980911B299817A8F4E1
:100F3000E0911C298091132990911429E80FF92F31
:100F4000F11D80818093AD0880911C298F5F809373
:100F50001C2983E08093AA08A6CF82E08093AA0888
:100F60008BCF90911D2980911729981790F480912B
:100F7000AD08E0911D292091152930911629E20F25
:100F8000F32FF11D808380911D298F5F80931D2990
:100F9000E0CF86E08093AA0882E06ECF85E06CCF38
:100FA0001F920F920FB60F9211242F933F938F939E
:100FB0009F93EF93FF938091A508982F9C70E1F089
:100FC0008091A50894E082FF93E090932829809374
:100FD000A50881E090E080931E2990931F2910922C
:100FE0002929FF91EF919F918F913F912F910F9020
:100FF0000FBE0F901F90189586FF4EC02091252997
:10100000909124298091A50884FF15C08091212901
:10101000882379F083E08093A40885E080932829D1
:101020001092292981E090E080931E2990931F2936
:10103000D8CF81E0F0CF80912329821790F4E091FE
:1010400023298091262990912729E80FF92FF11D56
:1010500080818093A808809123298F5F8093232922
:10106000C0CF80912229891760F484E090E08093BA
:101070001E2990931F298091202981608093A708C1
:10108000B0CF80912129882329F083E08093A408A0
:1010900081E0C4CF81E0FACF87FF40C09091222940
:1010A000809124299817D8F48091A808E0912229EA
:1010B0002091112930911229E20FF32FF11D808325
:1010C000809122298F5F80932229909124298091F9
:1010D00022298917D8F482E08093A40882CF8091D6
:1010E0002129882389F087E08093A40882E08093F7
:1010F00028291092292981E090E080931E2990935D
:101100001F29109224296DCF85E0EECF80912129EF
:10111000882311F087E0BACF85E0B8CF86E07ECF94
:10112000E7E4F9E21282138288EE93E0A0E0B0E0F7
:1011300084839583A683B78320E835E520833183B4
:1011400020E638E02487358728E1268729E12787AC
:1011500020E4208B128A138A148A158A26E2268BB1
:10116000178A108E1092E0291092E129E2EEF9E23E
:101170001282138284839583A683B7838AE995E5D7
:1011800080839183089588ED90E084BF90936100FF
:1011900080E094E2A4EFB0E08093002890930128CF
:1011A000A0930228B0930328809102068660809362
:1011B00002068091000681608093000680910206FD
:1011C0008F7C809302068091A0008F788093A0008E
:1011D000809102068061809302061092E20581E010
:1011E0008093E40583E08093010A8FEF90E0809381
:1011F000260A9093270A80E890E08093380A90931B
:10120000390A80933A0A90933B0A80933C0A909360
:101210003D0A8BE08093000A8091E5058160809310
:10122000E5058091E50582608093E505E0E8FAE058
:1012300037E02FEF90E885E031832487958780831E
:101240007096E03C4AE0F407B9F780E094E08093C0
:1012500041299093422980914129909142292FEF71
:1012600030E0B9010E940B0A60933F297093402936
:101270008091412990914229E8EEF3E0BF010E945C
:101280000B0A6093372970933829809141299091F6
:101290004229BF010E940B0A809335299093362979
:1012A0002093BC0A3093BD0A8091B50A8160809377
:1012B000B50A84E08093B00A8091B00A816080937F
:1012C000B00A789440E052EC61E070E087E499E283
:1012D0000E948F0563E382EE99E20E94F50488E99B
:1012E00095E080932A2990932B2986EF95E08093AF
:1012F0002C2990932D2988EC95E50E94E80561E062
:1013000070E08CE00E94E60161E070E088E00E94FD
:10131000E601109231290E94740500E010E0C4EF4C
:10132000D1E09924939482E0882E98EEA92E93E040
:10133000B92E809130298823A1F010923029F090A5
:101340002E2981E08F1568F0F81609F43FC085ED6D
:1013500095E50E94E80510923429109231290E94E7
:10136000740580913429882359F080913229909115
:1013700033290097D1F10197809332299093332933
:101380000E9493026B017C0128EEC20E23E0D21E64
:10139000E11CF11C48EEC41643E0D406E104F1045C
:1013A00038F40E949302C616D706E806F906C8F379
:1013B0000E9493026C157D058E059F05C8F30115EB
:1013C000110509F4B6CF0E940000B3CF8EED95E56C
:1013D0000E94E805F0923129C0933229D093332935
:1013E0000E947405F0923429BCCF80913129882362
:1013F00041F0813049F480923129A0923229B09293
:1014000033290E947405BCCF90923129C0933229B0
:10141000D0933329F6CFAA1BBB1B51E107C0AA1FEB
:10142000BB1FA617B70710F0A61BB70B881F991F85
:101430005A95A9F780959095BC01CD010895A1E238
:101440001A2EAA1BBB1BFD010DC0AA1FBB1FEE1F3E
:10145000FF1FA217B307E407F50720F0A21BB30B89
:10146000E40BF50B661F771F881F991F1A9469F705
:1014700060957095809590959B01AC01BD01CF0161
:101480000895052E97FB1EF400940E94580A57FDFC
:1014900007D00E941F0A07FC03D04EF40C94580A90
:1014A00050954095309521953F4F4F4F5F4F089590
:1014B00090958095709561957F4F8F4F9F4F0895C0
:1014C0000E94790AA59F900DB49F900DA49F800D56
:1014D000911D11240895B7FF0C94600A0E94600AC0
:1014E000821B930B0895EE0FFF1F0590F491E02DE2
:1014F0000994A29FB001B39FC001A39F700D811DED
:101500001124911DB29F700D811D1124911D08950C
:04151000F894FFCF7D
:1015140000000003000102000001010000000000BF
:1015240000000000000000000000050400050602A1
:101534000401030001000102030201000203040587
:10154400020305040202000502010500040101046E
:101554000404030303030505030300000101201031
:1015640001204004100208010201020408040201DF
:101574000408102004082010000000001601CC020A
:101584007B006701AC008A009E008F051502B8003D
:10159400F902000000006904440471051A043D04C2
:1015A4002A041B043A05F504E804E404AB048C049F
:1015B4008404BA04B204C202C7020D0A005265636D
:1015C4003A0020006932635F73657475702E2E2EA5
:1015D40000434D445F53544F5000434D445F5354B4
:0415E400415254001C
:0415E8000024F400E7
:00000001FF
