:100000000C9451000C9479000C9479000C947900B4
:100010000C9479000C9479000C9479000C9479007C
:100020000C9479000C9479000C9479000C9479006C
:100030000C9479000C9479000C94A1070C9452084C
:100040000C9479000C9479000C9479000C9479004C
:100050000C9479000C9479000C9479000C9479003C
:100060000C9479000C9412090C9479000C9479008A
:100070000C9479000C9479000C9479000C9479001C
:100080000C9479000C9479000C9479000C9479000C
:100090000C94CE060C9458070C9432070C947900FB
:1000A000010A11241FBECFEFCDBFDFE3DEBF18E290
:1000B000A0E0B8E2EAE3FCE102C005900D92A630B0
:1000C000B107D9F72AE2A6E0B8E201C01D92A93132
:1000D000B207E1F710E0C1E5D0E004C02197FE01CE
:1000E0000E94890DC035D107C9F70E94890A0C9476
:1000F000B10D0C940000CF92DF92EF92FF921F930C
:10010000CF93DF939C01203282E03807D4F5D901E8
:10011000253B310514F0A4EBB0E04091172A28E804
:1001200030E0241B310947FD3395220F331F220F86
:10013000331F6901330FEE08FF084091182A28E5A4
:1001400032E0241B310947FD3395220F331F220F64
:10015000331F032E000C440B550B2C193D094E097F
:100160005F09B7FF02C0B0E0A0E00E949A0D24EB47
:1001700030E040E050E00E946A0D2C0D3D1D4E1D08
:100180005F1D1091162A1C3008F04AC08091172A72
:10019000C8E8D0E0C81BD10987FDD395CC0FDD1F7F
:1001A000CC0FDD1F2C173D0784F08091182AC8E57D
:1001B000D2E0C81BD10987FDD395CC0FDD1FCC0F32
:1001C000DD1F2C173D070CF4E901609102287091A6
:1001D0000328809104289091052820E432E44FE020
:1001E00050E00E94480D84E0369527958A95E1F706
:1001F00025972C9FC0012D9F900D3C9F900D1124A1
:100200009C013695279536952795812F90E0FC0126
:10021000EE0FFF1FE80FF91FEF50F64D21833283D9
:10022000DF91CF911F91FF90EF90DF90CF900895D5
:10023000FC0154894589252F30E0842F90E0821BF2
:10024000930B541710F0CF96089501970895FC0171
:1002500092898389981761F0A389AE0FBF2FB11DD2
:1002600059968C9193899F5F9F73938B90E008952B
:100270008FEF9FEF0895FC0192898389981731F0E1
:100280008389E80FF11D818D90E008958FEF9FEF36
:100290000895FC0192892389892F90E0805C9F4F0B
:1002A000821B91098F7399270895CF93DF93EC01F7
:1002B000E881F9810680F781E02D0995EC85FD85BF
:1002C00086818F738683EC85FD8585818F75858317
:1002D0008B898A8B198ADF91CF910895CF93DF9311
:1002E000FC0194898589C485D585981306C08D81C4
:1002F0008F7D8D83DF91CF910895A589AE0FBF2F9C
:10030000B11DA75ABF4F2C91858990E001968F733C
:100310009927858B80E48C83A485B58512962C93D0
:10032000948985899813E6CFA485B58515968C9117
:1003300015978F7D15968C9387898823D9F2808DA8
:1003400080931301178AD6CFDC011C96ED91FC91A6
:100350000FB607FE03C0258125FD04C0248125FDBD
:100360000C946E010895EF92FF920F931F93CF9319
:10037000DF93EC0181E0898B9C898D8998131CC0E7
:10038000AC85BD8514968C91149785FF15C0129687
:100390006C93AC85BD8580E414968C93EC85FD85CB
:1003A00085818F7D858381E090E0DF91CF911F91E2
:1003B0000F91FF90EF9008958091110180FF08C088
:1003C00080911301888F8E898093130181E08F8B38
:1003D000F62E0C8910E00F5F1F4F0F731127E02ED0
:1003E0008D898E1104C0CE010E94A401F9CFEC8941
:1003F000EC0FFD2FF11DE75AFF4FF0820C8BEC85BF
:10040000FD8585818062CECFCF93DF93FC0121896A
:100410002223C9F0EC018091110180FF08C0809176
:100420001301808F86898093130181E0878BEC858F
:10043000FD85858185FD03C0848186FD04C0CE01D4
:100440000E94A401F4CFDF91CF910895282F30E0CE
:10045000F901EC54F44A40814F3F09F44EC08B320D
:1004600058F4F901EA59F44AE081EE2329F0E13029
:1004700099F010F0E63010F1F901E656F44AE08107
:10048000A0E2EA9FF0011124FC5F8081842311F136
:10049000672BF1F446830895E091010AD901A05831
:1004A000B44A5C915C5F81E090E001C0880F5A958E
:1004B000EAF780958E238093010ADECF80E1E89FE2
:1004C000F0011124E05AF54F81818F7E8183D4CFD2
:1004D000458308952058344AD9018C91309771F0A2
:1004E0008F3F61F07096E80FF11D9FB7F8948081FF
:1004F000672B39F4877F80839FBF0895F0E0E0E0A9
:10050000F4CF8860F8CFCF93DF9390E0FC01EC54F8
:10051000F44A20812F3F69F0FC01E656F44AE0815D
:1005200030E2E39FF0011124FC5F6130710521F49A
:100530002183DF91CF9108958058944AEC01A881DE
:10054000AF3F69F0CF014096A80FB92FB11D9FB7FB
:10055000F89422838C9188608C939FBFEACFB0E09F
:10056000A0E0F5CFCF92DF92EF92FF920F931F930F
:10057000CF93DF93EC016A017B01022F89898823E5
:1005800039F0E881F9810288F389E02DCE010995DF
:1005900098898091E205892B8093E2051FB7F89432
:1005A00060E070E281EA97E0A70196010E94480DA1
:1005B00069017A018FEFC81AD80AE80AF80AF69496
:1005C000E794D794C794EC85FD8586818D7F8683DB
:1005D000EC85FD8586818683198AA09123110A2ED8
:1005E000000CBB0BA70196010E949A0D20E034E09D
:1005F00040E050E00E946A0DEC85FD85C20ED31EDE
:10060000E41EF51EC086D186EC85FD850783EC854A
:10061000FD858681806C8683EC85FD85858180687B
:1006200085838E858B3220F462E070E00E94830225
:100630008F858B3220F461E070E00E9426028F8566
:100640008B3220F461E070E00E9483021FBFDF91D3
:10065000CF911F910F91FF90EF90DF90CF90089571
:10066000CF93DF938FB7F894209146293091472993
:100670004091482950914929E091BA0A9091B60ACF
:1006800090FF06C02F5F3F4F4F4F5F4FE091BA0A78
:100690008FBFA0914429B0914529C0914229D091A2
:1006A00043290E948F0DEC9F9001ED9F300D112486
:1006B000620F731F811D911DDF91CF91089560938B
:1006C0002F2970933029089560932D2970932E2936
:1006D0000895AF92BF92CF92DF92EF92FF920F9365
:1006E0001F93CF93DF936C017B018B01040F151FC8
:1006F000EB015E01AE18BF08C017D10759F0699130
:10070000D601ED91FC910190F081E02DC601099593
:10071000892B79F7C501DF91CF911F910F91FF9040
:10072000EF90DF90CF90BF90AF90089581E0089553
:100730000F9391E090932C2910922B2960932929F3
:1007400070932A294093282920932729109226293B
:100750001092252900932429880F8093232923E0D0
:1007600030E044E050E080912829882341F0209334
:10077000212930932229809123298E7F0BC08091DB
:100780002729882351F040932129509322298091D1
:10079000232981608093A70808C0809128298111AE
:1007A00004C080912729882311F380912B29882365
:1007B000E1F380912B298330B1F28091272988239E
:1007C00021F0809125290F91089580912B29823065
:1007D00031F0853031F0813031F480E0F4CF81E0C8
:1007E000F2CF83E0F0CF84E0EECFE0EAF8E091854D
:1007F0009066918722E030E02093212930932229CE
:100800008093132910921229089581E08093122970
:100810001092132993E09093AA089091AB0891FF4E
:1008200010C010921F29E0911029F091112909950B
:1008300080931E2985E090E08093212990932229BE
:1008400008951092202980931D2986E090E0F4CF2E
:100850008F929F92AF92BF92CF92DF92EF92FF92D0
:10086000CF93DF9360342DE0720723E08207910578
:1008700008F454C0611525E372072CE08207910546
:1008800008F445C060387F448241910508F046C0B5
:10089000C8E7D0E020E432E44FE050E08090022846
:1008A00090900328A0900428B0900528C501B401B9
:1008B0000E94480D69017A018AE0C81AD108E1084E
:1008C000F108C501B40120E432E44FE050E00E9499
:1008D000480DDE010E948F0D28EE33E040E050E02D
:1008E0000E94480DC21AD30AE40AF50AF694E79466
:1008F000D794C794C092A608DF91CF91FF90EF9054
:10090000DF90CF90BF90AF909F908F900895CCE2F2
:10091000D1E020E83AE146E050E0C0CFC8EED3E0B5
:1009200020EA36E841E050E0B9CFE0912D29F0917E
:100930002E29309741F010920F2910920E29099517
:1009400080910E29089580E00895E0912F29F0917B
:100950003029309759F030910D2920910C29321708
:1009600028F010920D2980930C2909940895089578
:10097000E0910D2980910C29E81730F4F0E0E4575C
:10098000F74D808190E008958FEF9FEF089590914B
:100990000D2980910C292FEF3FEF981748F4E92F8C
:1009A000F0E0E457F74D208130E09F5F90930D29F0
:1009B000C901089580910C2990910D29891B990BEB
:1009C0000895CF92DF92EF92FF920F931F93CF93F0
:1009D000DF937C018A01EB016B01C40ED51ECC159F
:1009E000DD0551F06991D701ED91FC910190F08105
:1009F000E02DC7010995F3CFC801DF91CF911F9179
:100A00000F91FF90EF90DF90CF90089520910E29E5
:100A100027FF08C021E030E0FC012283338390E00F
:100A200080E0089580910F29E82FF0E0E45FF74D12
:100A300060838F5F80930F2980930E2981E090E07F
:100A40000895DC01ED91FC91008CF18DE02D61E0C9
:100A500009940F9380912129909122290197A1F463
:100A600080912C29811112C0062F20E040910E297F
:100A70006CE078E280910B280E94980310920F2975
:100A800010920E290F91089580E0F8CF81E0F6CF03
:100A900060930B2810920F2910920E290895DC0103
:100AA000ED91FC91048CF58DE02D21E009940F93DC
:100AB0008CE898E28093142990931529809121293C
:100AC000909122290197C9F480912C29811117C096
:100AD000FA014138510510F0E0E8F0E0022F862FCE
:100AE0002E2F40E070E060E00E94980310920D29E4
:100AF00080930C2990E00F91089580E0F7CF81E07A
:100B0000F5CFCB01BA010C942804E0EAF8E0138297
:100B1000168281E085831486118610922129109215
:100B20002229089510920D2910920C2910920F2954
:100B300010920E298091212990912229892BD9F494
:100B400082E090E08093212990932229109220291D
:100B500010921F29109212291092132910920A281C
:100B600010921D29660F6093AC0881EE8093A9084E
:100B700081E08093A30885E994E080931029909305
:100B800011298CE098E2809316299093172985EA21
:100B900094E080931B2990931C298CE898E2809321
:100BA00018299093192980E880931A2908951092A2
:100BB0000D2910920C2910920F2910920E29809164
:100BC000212990912229892B41F562E070E086E18C
:100BD0000E94830262E070E087E10E9483028091BC
:100BE000E3058093E30581E090E0809321299093D1
:100BF0002229109225291092262910922C29109230
:100C00002B2981EC8093A30860EA76E881E090E0EC
:100C10000E94280481E08093A508089590E080E078
:100C20000895DC01ED91FC910088F189E02D23E02D
:100C300030E009946EE28AE499E20C94B301FC017D
:100C400001900020E9F73197AF01481B590BBC0117
:100C50008AE499E20C9469038F929F92AF92BF92BB
:100C60000F931F93CF93DF93CDB7DEB7A197CDBF7F
:100C7000DEBF19A2423008F44AE08E010F5D1F4F1B
:100C8000842E912CB12CA12CA50194010E94480D19
:100C9000E62FB901CA01EA30DCF4E05DD801EE9339
:100CA0008D01232B242B252B79F790E080E01097E2
:100CB00019F0CD010E941F06A196CDBFDEBFDF91C6
:100CC000CF911F910F91BF90AF909F908F900895FB
:100CD000E95CE4CFCF93DF930E941F06EC0180E133
:100CE0009CE50E941F068C0F9D1FDF91CF910895F8
:100CF000CF93DF9310920828C0E0D1E090910C29A7
:100D000080910D29981701F185EE99E20E94C704A0
:100D10002C2F30E0F901EF5CF64D809580838091B7
:100D200008288F5F809308282F5F3F4FC22FC17024
:100D3000D0933329809106289091072801968093BB
:100D4000062890930728DACF83E19CE50E941F06CE
:100D50006091312970E090E080E04AE00E942C062A
:100D600088E19CE50E941F066091322970E090E0C6
:100D700080E04AE00E942C0688E19CE50E941F0664
:100D80006091332970E090E080E04AE00E942C06F8
:100D900080E19CE5DF91CF910C941F061F920F928A
:100DA0000FB60F9211242F933F934F935F936F933E
:100DB0007F938F939F93AF93BF9340913E29509120
:100DC0003F29609140297091412980913C2990915F
:100DD0003D2920913A2930913B29420F531F611D33
:100DE000711D2091382930913929820F931F883E37
:100DF00023E0920730F0885E93404F5F5F4F6F4F64
:100E00007F4F80933C2990933D2940933E295093F6
:100E10003F29609340297093412980914629909100
:100E20004729A0914829B09149290196A11DB11DDA
:100E30008093462990934729A0934829B093492944
:100E400081E08093B60ABF91AF919F918F917F917E
:100E50006F915F914F913F912F910F900FBE0F9027
:100E60001F9018951F920F920FB60F9211242F9377
:100E70003F934F935F936F937F938F939F93AF9322
:100E8000BF93EF93FF938AE499E20E946E01FF9172
:100E9000EF91BF91AF919F918F917F916F915F91F2
:100EA0004F913F912F910F900FBE0F901F9018956B
:100EB0001F920F920FB60F9211242F933F934F93CF
:100EC0005F936F937F938F939F93AF93BF93EF93B2
:100ED000FF93E0915629F0915729818181FD2FC020
:100EE000608180915C298F5F8F7390915D29891754
:100EF00041F0E0915C29F0E0E65BF64D618F809374
:100F00005C298091E3299091E429009739F0DC0174
:100F1000ED91FC910190F081E02D0995FF91EF9109
:100F2000BF91AF919F918F917F916F915F914F9101
:100F30003F912F910F900FBE0F901F9018958081B9
:100F4000EDCF1F920F920FB60F9211242F933F9364
:100F50004F935F936F937F938F939F93AF93BF93C1
:100F6000CF93EF93FF93C091AB08C2FF0AC01092DA
:100F7000202910921F2910921E2984E00E94F50357
:100F800014C0C6FF2FC080911D29813051F480917B
:100F90002029E0911B29F0911C2990E009951092DD
:100FA0001D29C0FF14C00E940504FF91EF91CF914D
:100FB000BF91AF919F918F917F916F915F914F9171
:100FC0003F912F910F900FBE0F901F90189580E4C6
:100FD0008093AB0881E00E94F5038091AB0885FF08
:100FE000E4CFE1CFC7FF5CC0C3FF08C01092202947
:100FF00010921F2910921E2983E0C0CF8091A9086A
:1010000080668093A9088091AB0881FF2CC08091F5
:101010001F29882349F08091AB0884FF05C082E036
:101020008093AA0881E0AACF90911F2980911E2960
:101030009817A8F4E0911F298091162990911729FB
:10104000E80FF92FF11D80818093AD0880911F2951
:101050008F5F80931F2983E08093AA08A6CF82E048
:101060008093AA088BCF9091202980911A299817F4
:1010700090F48091AD08E0912029209118293091B9
:101080001929E20FF32FF11D8083809120298F5FB2
:1010900080932029E0CF86E08093AA0882E06ECF7B
:1010A00085E06CCF1F920F920FB60F9211242F93F1
:1010B0003F938F939F93EF93FF938091A508982F71
:1010C0009C70E1F08091A50894E082FF93E09093FA
:1010D0002B298093A50881E090E0809321299093AB
:1010E000222910922C29FF91EF919F918F913F918E
:1010F0002F910F900FBE0F901F90189586FF4EC036
:1011000020912829909127298091A50884FF15C056
:1011100080912429882379F083E08093A40885E0D6
:1011200080932B2910922C2981E090E08093212933
:1011300090932229D8CF81E0F0CF80912629821781
:1011400090F4E09126298091292990912A29E80F8D
:10115000F92FF11D80818093A808809126298F5F47
:1011600080932629C0CF80912529891760F484E0D7
:1011700090E08093212990932229809123298160F6
:101180008093A708B0CF80912429882329F083E099
:101190008093A40881E0C4CF81E0FACF87FF40C0EC
:1011A00090912529809127299817D8F48091A80833
:1011B000E09125292091142930911529E20FF32F70
:1011C000F11D8083809125298F5F8093252990913F
:1011D0002729809125298917D8F482E08093A408D3
:1011E00082CF80912429882389F087E08093A40806
:1011F00082E080932B2910922C2981E090E080934B
:10120000212990932229109227296DCF85E0EECFD6
:1012100080912429882311F087E0BACF85E0B8CFE8
:1012200086E07ECF1F920F920FB60F9211240F937C
:101230001F932F933F934F935F936F937F938F935E
:101240009F93AF93BF93CF93DF93EF93FF938091DF
:101250000928C091152AD0E087FF52C01092AC0A2D
:101260001092AD0A809109288F5F809309288091A0
:101270000928082E000C990B8C179D072CF48091DF
:1012800009288C300CF46AC0C091AC0AD091AD0A28
:10129000609102287091032880910428909105287C
:1012A00020E432E44FE050E00E94480D54E03695CF
:1012B00027955A95E1F740E85EE3249FC001259FFA
:1012C000900D349F900D112496958795969587954E
:1012D000AE0170E060E04C5F5F4F6F4F7F4F8C015D
:1012E00030E020E0401751076207730708F083C021
:1012F0008093AC0A9093AD0A8FEF8093092863C066
:1013000080910928082E000C990B8C179D070CF072
:10131000A9CFE09109288E2FEE0F990BFC01EE0F5B
:10132000FF1FE80FF91FEF50F64D808186FF9ACF1F
:10133000E09109288E2FEE0F990BFC01EE0FFF1F95
:10134000E80FF91FEF50F64D80818F738B3208F054
:1013500089CF70E060E00E94260284CFE0910928E6
:101360008E2FEE0F990BFC01EE0FFF1FE80FF91FF8
:10137000EF50F64D808186FF14C0E09109288E2F32
:10138000EE0F990BFC01EE0FFF1FE80FF91FEF5056
:10139000F64D80818F738B3220F461E070E00E9403
:1013A0002602E09109288E2FEE0F990BFC01EE0F1B
:1013B000FF1FE80FF91FEF50F64D81819281809356
:1013C000AC0A9093AD0A81E08093A60AFF91EF9159
:1013D000DF91CF91BF91AF919F918F917F916F914D
:1013E0005F914F913F912F911F910F910F900FBEE1
:1013F0000F901F9018952496C093AC0AD093AD0A15
:101400007BCFCF93DF9310924C2910924D2988EE19
:1014100093E0A0E0B0E080934E2990934F29A093F1
:101420005029B093512922ED3BE520934A2930936E
:101430004B2920E638E0209356293093572928E19C
:101440002093582929E12093592920E420935A29EF
:1014500010925C2910925D2910925E2910925F29EA
:1014600026E220936029109261291092622910923D
:10147000E3291092E4291092E7291092E829809339
:10148000E9299093EA29A093EB29B093EC298CEEFB
:101490009BE58093E5299093E629C091152ACC30ED
:1014A000A0F581E08C0F8093152AC093162AD0E016
:1014B000609102287091032880910428909105285A
:1014C00020E432E44FE050E00E94480D84E036957D
:1014D00027958A95E1F74CED55E0249FC001259FA3
:1014E000900D349F900D11249C01369527953695CB
:1014F0002795CE01880F991FC80FD91FCF50D64D01
:1015000029833A83DF91CF9108958FEF8093162A34
:10151000F9CF88ED90E084BF9093610080E094E281
:10152000A4EFB0E08093022890930328A0930428AE
:10153000B093052880910206866080930206809110
:101540000006816080930006809102068F7C809364
:1015500002068091A0008F788093A00080910206FF
:101560008061809302061092E20581E08093E40599
:1015700083E08093010A8FEF90E08093260A909396
:10158000270A80E890E08093380A9093390A809384
:101590003A0A90933B0A80933C0A90933D0A8BE071
:1015A0008093000A8091E50581608093E505809134
:1015B000E50582608093E505E0E8FAE037E02FEF8B
:1015C00090E885E031832487958780837096E03C9E
:1015D0004AE0F407B9F780E094E0809344299093BF
:1015E000452980914429909145292FEF30E0B90198
:1015F0000E94340D609342297093432980914429BD
:1016000090914529E8EEF3E0BF010E94340D60930C
:101610003A2970933B298091442990914529BF0133
:101620000E94340D80933829909339292093BC0A65
:101630003093BD0A8091B50A81608093B50A84E039
:101640008093B00A8091B00A81608093B00A789448
:1016500040E052EC61E070E08AE499E20E941106F9
:1016600064E385EE99E20E9492058AE196E0809318
:101670002D2990932E2988E796E080932F29909327
:1016800030298AE19CE50E946A068091162A8C30F6
:1016900008F049C061E070E08AE00E948302809116
:1016A000162A282F30E0E901CC0FDD1FDE01A20F42
:1016B000B31FAF50B64D9C91907C9A609C93109252
:1016C000172A1092182A4CE0642F0E94280D849F3C
:1016D000C001112450E040E0BC01640F751FFB0104
:1016E000EE0FFF1FE60FF71FEF50F64D608166FD0E
:1016F00012C04F5F5F4F4C30510571F784E080930B
:10170000A00A1092A10A81E08093A50A8091A00A04
:1017100081608093A00A2C0F3D1FF901EF50F64D18
:1017200080818064808361E070E088E00E948302B1
:1017300061E070E087E00E94830280910028909130
:1017400001280E947B0070E060E088E00E94260291
:1017500070E060E087E00E9426021092362980E067
:10176000282E80E0382E08EE13E0CAE0D0E098E89A
:10177000E92E93E1F92E25E0422E512C34EFC32EB1
:10178000DD24D39447E3642E712C80913329882380
:10179000D9F010923329B090312981E08B15A0F057
:1017A000B81671F187E29CE50E946A06109237290B
:1017B0001092362970E060E088E00E94260270E016
:1017C00060E087E00E94260280913729882309F48F
:1017D0008AC0E0913629E150E83008F084C0F0E09A
:1017E000E850F44F80913429909135290C94890D5B
:1017F000120C2C0C5A0C990CB30CCC0CE40C140DE0
:1018000080E39CE50E946A06B092362961E070E0B0
:1018100088E00E9426020093342910933529B09263
:101820003729D2CF009729F00197809334299093DC
:1018300035298091342990913529892B09F053C09D
:101840006092002870920128C0933429D0933529E2
:1018500022E02093362947C0009729F00197809312
:101860003429909335298091342990913529892BF9
:10187000D1F5A0900028B0900128C5010E947B00FE
:1018800041E0A41AB108A0920028B0920128C093A8
:101890003429D093352985E0A816B10424F570E0E9
:1018A00060E088E00E942602C0923429D092352957
:1018B00023E0CFCF009729F00197809334299093AC
:1018C00035298091342990913529892B61F461E083
:1018D00070E087E00E942602E0923429F0923529D8
:1018E00044E0409336290E9430034B015C0148EEEE
:1018F000840E43E0941EA11CB11C88EE881683E080
:101900009806A104B10438F40E94300386169706A5
:10191000A806B906C8F30E943003681579058A0540
:101920009B05C8F32114310409F42FCF0E94000055
:101930002CCF009729F00197809334299093352973
:101940008091342990913529892B69F670E060E007
:1019500087E00E942602C0923429D092352985E082
:1019600080933629C0CF009729F0019780933429BE
:10197000909335298091342990913529892B09F04C
:10198000B2CF61E070E088E00E9426020093342923
:101990001093352926E05DCF009729F001978093B9
:1019A0003429909335298091342990913529892BB8
:1019B00009F099CF4092002850920128C093342911
:1019C000D093352987E0CCCF009729F001978093F9
:1019D0003429909335298091342990913529892B88
:1019E00009F081CFA0900028B0900128C5010E9485
:1019F0007B004FEFA41AB40AA0920028B0920128ED
:101A0000C0933429D093352988E3A816B1040CF487
:101A10006ACF70E060E088E00E942602E0923429FC
:101A2000F092352988E09CCF009729F001978093A8
:101A30003429909335298091342990913529892B27
:101A400009F051CF009334291093352921E001CFBB
:101A5000991B79E004C0991F961708F0961B881F00
:101A60007A95C9F780950895AA1BBB1B51E107C061
:101A7000AA1FBB1FA617B70710F0A61BB70B881F1E
:101A8000991F5A95A9F780959095BC01CD010895AD
:101A9000A1E21A2EAA1BBB1BFD010DC0AA1FBB1F72
:101AA000EE1FFF1FA217B307E407F50720F0A21BE4
:101AB000B30BE40BF50B661F771F881F991F1A9451
:101AC00069F760957095809590959B01AC01BD017B
:101AD000CF010895052E97FB1EF400940E94810DFE
:101AE00057FD07D00E94480D07FC03D04EF40C941C
:101AF000810D50954095309521953F4F4F4F5F4F49
:101B0000089590958095709561957F4F8F4F9F4F69
:101B10000895EE0FFF1F0590F491E02D09940E94A7
:101B2000A20DA59F900DB49F900DA49F800D911DB7
:101B300011240895B7FF0C948F0D0E948F0D821B06
:101B4000930B0895A29FB001B39FC001A39F700D96
:101B5000811D1124911DB29F700D811D1124911DB5
:061B60000895F894FFCF88
:101B66000000000300010200000101000000000067
:101B76000000000000000000000005040005060249
:101B8600040103000100010203020100020304052F
:101B96000203050402020005020105000401010416
:101BA60004040303030305050303000001012010D9
:101BB6000120400410020801020102040804020187
:101BC600040810200408201000000000B301690377
:101BD60018010402490127013B011106B202550111
:101BE6009603000000000605E1040E06B704DA04B9
:101BF600C704B804D705920585058105480529055A
:101C0600210557054F055F0364030D0A00526563FE
:101C16003A0020006932635F73657475702E2E2E4C
:101C260000434D445F53544F5000434D445F53545B
:041C360041525400C3
:061C3A0037000024F40055
:00000001FF
